:1000000022C046C03EC644C043C0F1C541C040C046
:100010003FC03EC03DC03CC03BC03AC039C00000FC
:100020000000370000000000380001030000040059
:10003000000000003600020202020202010204086F
:100040001020DC094F0A11241FBECFE5D2E0DEBF2D
:10005000CDBF21E0ACE8B0E001C01D92A733B207EC
:10006000E1F710E0A0E6B0E0EEEBF7E102C00590AA
:100070000D92AC38B107D9F710E0C2E2D0E003C06E
:100080002197FE018ADBC132D107D1F7B7D68BCBDE
:10009000B7CFCF92DF92EF92FF920F931F93CF9340
:1000A000DF936C01EB017B01E40EF51E10E000E034
:1000B000CE15DF0561F06991D601ED91FC910190BB
:1000C000F081E02DC6010995080F191FF1CFC80175
:1000D000DF91CF911F910F91FF90EF90DF90CF9024
:1000E00008953FB7F8948091D3009091D400A091E7
:1000F000D500B091D60022B708B601FE05C02F3F4B
:1001000019F00196A11DB11D3FBFBA2FA92F982F3D
:100110008827BC01CD01620F711D811D911D42E038
:10012000660F771F881F991F4A95D1F70895CF92C0
:10013000DF92EF92FF92CF93DF936B017C01D1DFCF
:10014000EB01C114D104E104F10441F412C081E0D7
:10015000C81AD108E108F108C851DC4FC2DF6C1B96
:100160007D0B683E734068F3C114D104E104F104CF
:1001700071F7DF91CF91FF90EF90DF90CF900895CE
:100180001F93CF93DF9314E0D0E0C0E017B887B19E
:1001900087B9369A3699FECF94B185B189279827C9
:1001A0008927C80FD91F62E070E080E090E0BFDFD0
:1001B000115061F7BE0190E080E091D928E638EE59
:1001C0004FE95BE3EDD920E030E040E85EE3E8D9B9
:1001D000DF91CF911F9108952FB7F8946091CF00D0
:1001E0007091D0008091D1009091D2002FBF0895DE
:1001F0000F931F938091110190911201DC01ED91F9
:10020000FC910480F581E02D0995892B09F4D5C076
:1002100060E070E0CB018BDF20912F018091110114
:1002200090911201DC01ED91FC910680F781E02DA7
:1002300021110BC0099580931B018E37D9F680914F
:100240002F018F5F80932F01D5CF099590912F01BA
:10025000E92FF0E0EF5EFE4F82879230B9F09930DF
:10026000D9F09130A9F48F3F99F010922F0181E0DD
:100270008093310110923401109233018093350143
:100280001092360180E01F910F910895863069F732
:100290009F5F90932F01AECF8F3E39F720911D01C4
:1002A00080911C01280F3327331FE0911E01C901E3
:1002B0008E0F911D20911F01280F392F311D409164
:1002C000200150E0240F351F8091210190E06091C2
:1002D000220170E0762F6627F09123016F0F711DC8
:1002E000280F391F3195219531096217730709F0DD
:1002F000BCCF10922F01E13419F4109236012EC0B8
:10030000E0933201542F4427840F951F90933401BA
:1003100080933301EA53E63108F045C0F0E0EE5631
:10032000FE4F09942CC033C03CC012C03AC019C063
:1003300036C039C036C035C034C033C032C031C019
:1003400030C02FC030C02DC02CC02BC02AC029C047
:1003500085E08093310181E0809335018091350102
:1003600092CF80FF02C089E0F4CF81FF02C084E019
:10037000F0CF83709927892B89F38AE0EACF80FF39
:1003800002C087E0E6CF81FFE9CF82E0E2CF80FFC5
:1003900002C088E0DECF81FFE1CF83E0DACF86E0E4
:1003A000D8CF8BE0D6CF81E0809331011092340119
:1003B0001092330180933501A0CF809136018823BC
:1003C00069F20ADF009113011091140120911501C7
:1003D00030911601601B710B820B930B009117017A
:1003E000109118012091190130911A0160177107BD
:1003F0008207930708F4B2CF10922F0110923101B7
:10040000109234011092330181E038CF809328019B
:10041000272F30E070932A0160932B014091270130
:1004200090912601490F5527551F840F952F911D37
:1004300040912901840F911D820F931F680F792F1E
:10044000711D71956195710970932C0160932D0157
:10045000442351F080913601882331F060E070E050
:10046000CB0165DEC5DEF6CF8091110190911201BE
:10047000DC01ED91FC910280F381E02D4AE050E037
:1004800065E271E00995A8DE609313017093140191
:1004900080931501909316018091290191E08111BB
:1004A00001C090E090933601811105C06AE070E0D0
:1004B00080E090E03CCE08952091D9003091DA00A0
:1004C0002817390781F49091D7008091D8009817A8
:1004D00051F0E091D700F0E0E257FF4F8081082E05
:1004E000000C990B08958FEF9FEF08952091D9008C
:1004F0003091DA002817390739F48FB7F894109241
:10050000D8001092D7008FBF0895EF92FF920F93FB
:100510001F93CF93DF93DC015C96ED90FC905D9789
:10052000E114F10479F481E090E013969C938E93AA
:10053000129790E080E0DF91CF911F910F91FF9093
:10054000EF9008955196ED91FC91529750968C91B1
:100550005097982F90950FB75E962C915E97122F1B
:10056000127021FD6095F8942081112319F1282B38
:100570002083E7012197F1F728E0462F50E03081F2
:1005800060FF1AC0382B3083E7012197F1F7BA01D9
:1005900075956795215089F7112381F08081892312
:1005A00080830FBF5C968D919C910197F1F781E05C
:1005B00090E0C1CF2923DCCF3923E5CF9081892B6F
:1005C000EFCF2091D9003091DA002817390769F46C
:1005D0008091D8002091D70090E0805C9F4F821BD3
:1005E000910960E470E0C6D8089590E080E0089535
:1005F0002091D9003091DA0028173907B9F4909189
:10060000D7008091D800981789F0E091D700F0E0EA
:10061000E257FF4F80812091D70030E02F5F3F4F9E
:100620002F7333272093D70090E008958FEF9FEF2B
:100630000895CF92DF92EF92FF92A2DD6B017C01D1
:1006400028E431EE4AEF5EE37DD818167CF42AE008
:1006500037ED43E85FE3C701B6013DD787FF06C02A
:1006600087E7FF90EF90DF90CF90089586E6F9CF6F
:1006700080910601843349F5E0918C00F0918D0062
:100680002091040130910501CF01821B930B65E09D
:1006900070E05CD8260F371F3093030120930201CE
:1006A000260F371F3093010120930001260F371FBB
:1006B0003093FF002093FE00E61BF70BF093FD0044
:1006C000E093FC0010920C0108958332D9F7209139
:1006D000040130910501E0918C00F0918D00C90179
:1006E0008E1B9F0B65E070E031D8261B370B3093D3
:1006F000030120930201261B370B30930101209345
:100700000001261B370B3093FF002093FE00E60FFD
:10071000F71FD4CF90E0FC01E65DFF4F3491FC0160
:10072000E45CFF4F2491FC01EA5CFF4FE491EE236F
:10073000B9F0332329F03130A1F48AB58F778ABD1F
:10074000F0E0EE0FFF1FEC5DFF4FA591B4918FB766
:10075000611118C0F894EC9120952E232C938FBF33
:100760000895323019F48AB58F7DE9CF333021F402
:1007700080B78F7D80BFE4CF343011F78CB58F7D8B
:100780008CBDDECFF894EC912E2BE8CF8F929F9208
:10079000AF92BF92CF92DF92EF92FF92CF93DF930F
:1007A000D82FC0E04B01B12CA12C6A01F12CE12C17
:1007B00060E082E0AFDFC501B401B9DC61E082E056
:1007C000A9DFC701B601B3DCCF5FDC13F1CFDF9146
:1007D000CF91FF90EF90DF90CF90BF90AF909F9020
:1007E0008F900895CF93DF9390E0FC01E45CFF4F7E
:1007F00024918A5C9F4FFC0184918823C9F090E08A
:10080000880F991FFC01E25EFF4FA591B491FC0196
:10081000EC5DFF4FC591D49161110DC09FB7F89465
:100820008C91209582238C938881282328839FBFD5
:10083000DF91CF910895623051F49FB7F8943C91C5
:10084000822F809583238C93E8812E2BEFCF8FB757
:10085000F894EC912E2B2C938FBFEACF0F931F931C
:1008600090E0FC01E45CFF4F6491FC01EA5CFF4F07
:10087000E491F0E0EE0FFF1FE05DFF4F8591949152
:1008800000E412E42FE030E0462F73D261157105C9
:100890008105910529F06F5F7F4F8F4F9F4F9F70AC
:1008A0001F910F910895CF92DF92EF92FF9280E017
:1008B000D5DF6B0181E0D2DF25EFC21A21E0D20A39
:1008C00021E033ECC31639E0D30608F020E0AB0199
:1008D000455F5140433C594008F4265F822FFF900A
:1008E000EF90DF90CF9008951FC76F927F928F9205
:1008F0009F92AF92BF92CF92DF92EF92FF920F93AF
:100900001F93CF93DF9395DEC82F68EC70E080E0F3
:1009100090E00DDC8EDEC63611F48636A1F381E060
:100920009DDF3B014CE251E06CE271E081E02EDFA3
:1009300080DEC82F68EC70E080E090E0F8DB79DEC4
:10094000C73711F48737A1F374DEC82F68EC70E065
:1009500080E090E0ECDB6DDEC63611F48636A1F364
:100960004CE251E06CE271E082E010DF81E076DF82
:100970004B018B015EDEC82F68EC70E080E090E0F8
:10098000D6DB57DEC73711F48737A1F352DEC82F05
:1009900068EC70E080E090E0CADB4BDEC63611F414
:1009A0008636A1F381E05ADF6B01EB014CE251E0A6
:1009B0006CE271E083E0EADEC016D10680F58401C6
:1009C000055E1F4F6B9764E389E090E08DDF602F39
:1009D00083E090E089DF612F84E090E085DF662D81
:1009E00085E090E081DF672D86E090E07DDF6C2F71
:1009F00087E090E079DF6D2F88E090E075DF81E09F
:100A0000DF91CF911F910F91FF90EF90DF90CF90EA
:100A1000BF90AF909F908F907F906F9008950C152E
:100A20001D05A8F684010B5111096B9663E2CCCF2A
:100A3000CF92DF92EF92FF920F931F93CF93DF93AA
:100A4000F8DDC82F68EC70E080E090E070DBF1DD4D
:100A5000C63611F48636A1F380E000DFEB014CE2EC
:100A600051E06CE271E081E091DEE3DD182F68EC8B
:100A700070E080E090E05BDBDCDD173711F4873756
:100A8000A1F3D7DD182F68EC70E080E090E04FDB39
:100A9000D0DD163611F48636A1F380E0DFDE6B017F
:100AA0004CE251E06CE271E082E070DECC15DD05D5
:100AB000C8F48BE1C81AD1086C2D90E080E014DFF7
:100AC0006D2D81E090E010DF63E382E090E00CDFC9
:100AD00081E0DF91CF911F910F91FF90EF90DF9018
:100AE000CF900895CC16DD0698F78BE1C80ED11C87
:100AF0006C2D90E080E0F8DE6D2D81E090E0F4DE7A
:100B000062E2E3CF68E790E080E0EEDE65E081E05E
:100B100090E0EADE63E382E090E0E6DE60ED83E011
:100B200090E0E2DE67E084E090E0DEDE6CED85E000
:100B300090E0DADE65E086E090E0D6DE68EE87E001
:100B400090E0D2DE63E088E090E0CEDE64E389E00E
:100B500090E0CADE64E580E091E0C6DE4CE251E060
:100B60006CEB72E084E012DE0895D6C5CF9390E07E
:100B700080E0FBDFC82F81E090E0F7DF982F8C2F1B
:100B8000909308018093070182E090E0EEDF80936C
:100B9000090183E090E0E9DFC82F84E090E0E5DF21
:100BA000982F8C2F90938D0080938C0085E090E09F
:100BB000DCDFC82F86E090E0D8DF982F8C2F909351
:100BC00005018093040187E090E0CFDFC82F88E023
:100BD00090E0CBDF982F8C2F9093FB008093FA004E
:100BE00089E090E0C2DF80930601CF9108951F92C3
:100BF0000F920FB60F9211242F933F938F939F93D1
:100C0000AF93BF938091CF009091D000A091D1007D
:100C1000B091D2003091CE0023E0230F2D3768F140
:100C200026E8230F0296A11DB11D2093CE008093CC
:100C3000CF009093D000A093D100B093D2008091C8
:100C4000D3009091D400A091D500B091D600019628
:100C5000A11DB11D8093D3009093D400A093D50023
:100C6000B093D600BF91AF919F918F913F912F91FB
:100C70000F900FBE0F901F9018950196A11DB11DEA
:100C8000D4CF1F920F920FB60F9211242F933F9340
:100C90004F935F936F937F938F939F93AF93BF9384
:100CA000EF93FF93E091D900F091DA00309749F08B
:100CB000A685B7858585968D91FF14C09C91892363
:100CC000A1F4FF91EF91BF91AF919F918F917F918F
:100CD0006F915F914F913F912F910F900FBE0F90A9
:100CE0001F9018959C91892361F7A389B4899C91E1
:100CF0008589809589238C93868997890197F1F757
:100D0000608D718DA685B785558538E020E0CB01D3
:100D10000197F1F7822F90E095958795282F4C91B8
:100D2000452309F02068315091F7868D81FD20958B
:100D30008091D80090E001968F7399273091D70069
:100D4000381799F0A091D800B0E0A257BF4F2C936C
:100D50008093D800828D938D0197F1F7A389B48990
:100D60008C919589892B8C93ACCF868D8160868FF1
:100D7000F1CFCF92DF92EF92FF920F931F93E82F64
:100D8000F92F08C000C000C000000150110921095E
:100D9000310949F1908196239417A1F308C000C04E
:100DA00000C000000150110921093109E1F09081D2
:100DB00096239413F4CFC12CD12CE12CF12C0AC032
:100DC0008FEFC81AD80AE80AF80A0C151D052E0577
:100DD0003F0549F080818623841791F36C2D7D2D8A
:100DE0008E2D9F2D04C060E070E080E090E01F91A8
:100DF0000F91FF90EF90DF90CF90089583E08ABD30
:100E000083BF789489B7826089BF80E48CBD8FEFFF
:100E10008DBD87EC80BF87E886B91092F6001092EE
:100E2000F5001092F4001092F3001092F20010926C
:100E3000F1008DE991E09093F8008093F7003091F4
:100E4000E700363020F54DEB50E05093F200409330
:100E5000F1004BE951E05093F4004093F3004CE271
:100E600051E05093F6004093F5002BB720622BBF62
:100E700045E350E05093EF004093EE0021E001C0C5
:100E8000220F3A95EAF72093F0000197F1F780914D
:100E9000F5009091F600892B49F1E091D900F0918D
:100EA000DA0020E0EB3DF20709F1309739F0A38931
:100EB000B4899C918589809589238C938091F900D0
:100EC0008E7F8093F9001092D8001092D7008BED9E
:100ED00090E09093DA008093D900E091EE00F091D9
:100EE000EF0080819091F000892B80838BED90E062
:100EF000909312018093110181E08093290170E0A9
:100F000060E08CE083DA68D96B017C0171D98111D2
:100F10000FC062D96C197D098E099F09613D774028
:100F20008105910528F460E070E0CB0100D9EECF97
:100F300068EC70E080E090E0FAD81092350168EE3D
:100F400073E080E090E0F3D86CE170E086E05EDA78
:100F500062E080E047DC61E082E044DC62E081E066
:100F600041DC44EF51E064EF71E081E00FDC08D92F
:100F70006B017C01C0920D01D0920E01E0920F0135
:100F8000F092100128E431EE4AEF5EE3DBD318164D
:100F90002CF52AE037ED43E85FE3C701B6019BD2A9
:100FA00087FF1CC060E082E0B5DB43DB15D98B0115
:100FB0004CE251E06CE271E086E0E8DB3ADBD82FEE
:100FC00068EC70E080E090E0B2D833DB05D9601BBC
:100FD000710B6131774208F4E9C094DD80E091E063
:100FE000C4DD843509F0F8C0C1DD42DB03E010E068
:100FF00052E0E52EF12CCC24C394D12CC1D86093BF
:101000000D0170930E0180930F019093100181E008
:1010100025DC4B0148DC823008F412C180910401C8
:101020009091050120910201309103014091060148
:10103000443309F0D3C08815990520F4821693062D
:1010400008F4FEC0409100015091010128153905B6
:1010500020F48416950608F4F1C02091FE0030912A
:10106000FF004815590520F48216930608F4EAC0DB
:101070002815390540F42091FC003091FD008216BE
:10108000930608F4E1C08816990640F48091FA00AE
:101090009091FB008815990508F4D0C0C0930C010D
:1010A000E0916000F0916100EE0FFF1FEE0FFF1F57
:1010B000E458FF4FEC0FF11D808180930B0198D80D
:1010C000882379F01092350180913101823009F442
:1010D000EFC008F0BBC0882309F4DDC0813009F4FB
:1010E000E1C080900D0190900E01A0900F01B09092
:1010F000100121EE3AE74CE850E4C501B40122D3D7
:1011000018160CF0F5C02BE734E146E950E4C501B0
:10111000B401E1D187FFECC0109261001092600031
:10112000E0910C01F0E0E458FF4F608160930B0107
:1011300080910A01681719F070E088E067D9809102
:101140000B0180930A0180E089DB5B0181E086DB93
:10115000809160009091610020910C01880F991F8F
:10116000880F991F84589F4F820F911DFC01608149
:1011700060930B0180910901833309F011C18091C3
:101180000701909108018A159B0508F037CF70E0A0
:1011900083E13CD960E082E0BDDA68E97AE380E08F
:1011A00090E0C5D761E082E0B5DA28CFD73709F4FF
:1011B00005CF79DB8A3039F08B3021F0813029F48A
:1011C00037DC0CCF35DC91DB09CF40E253E068EC33
:1011D00070E086E0DBDA02CF95DC06CF8816990650
:1011E00018F42815390560F1409100015091010172
:1011F0008216930618F44815590500F12091FE0057
:101200003091FF008416950618F428153905D0F0A2
:101210008216930638F42091FC003091FD002815C9
:10122000390590F08815990508F038CF8091FA00BB
:101230009091FB008816990608F030CFC1E02ECFC0
:10124000C0E02CCFC2E02ACFC3E028CF843009F41D
:101250003BC0A0F1863009F044CFA0903301B0909C
:1012600034014CEB52E06CE271E08FE08FDAF50173
:101270003197E730F10508F034CFEC5BF64F4CEBDB
:1012800052E06CE271E0099425C026C027C028C056
:1012900029C02AC02BC04CEB52E06CE271E082E026
:1012A00075DA1FCF4CEB52E06CE271E083E0F8CFCF
:1012B0004CEB52E06CE271E084E0F2CF4CEB52E098
:1012C0006CE271E085E0ECCF4CEB52E06CE271E057
:1012D00086E0E6CF87E0E4CF88E0E2CF89E0E0CFA8
:1012E0008AE0DECF8BE0DCCF8CE0DACF8DE0D8CFA8
:1012F00020E030E040E750E4C501B40123D21816E5
:10130000A4F42AE939E941E850E4C501B401E3D085
:1013100087FF0BC0D0926100C0926000E0910C0189
:10132000F0E0E458FF4F648101CF2DEC3CEC4CE43D
:1013300050E4C501B40106D21816A4F420E030E050
:1013400040E650E4C501B401C6D087FF0BC0F0925F
:101350006100E0926000E0910C01F0E0E458FF4F82
:101360006085E4CE26E636E646E150E4C501B401E8
:10137000E9D118160CF0E7CE2AE939E949E250E440
:10138000C501B401A8D087FFDECE109361000093A1
:101390006000E0910C01F0E0E458FF4F6485C6CE98
:1013A000823209F02BCE8091070190910801A81696
:1013B000B90608F4ECCE22CE1092DE001092DD00C9
:1013C00088EE93E0A0E0B0E08093DF009093E0002F
:1013D000A093E100B093E20080E790E09093DC00FE
:1013E0008093DB001092F2001092F1001092F40052
:1013F0001092F3001092F6001092F5001092F8008F
:101400001092F7006091F9006E7F6D7F6093F90094
:101410006695617081E0682783E07CD961E083E0B4
:10142000E1D988E08093EB0088E390E09093ED00B1
:101430008093EC0060E084E0D5D98091F90081FDD3
:1014400003C061E084E066D984E08093E70080E136
:101450008093E80086E390E09093EA008093E900AF
:1014600084EF91E0A0E0B0E0809317019093180121
:10147000A0931901B0931A018AE0E2E6F0E0A5E238
:10148000B1E001900D928A95E1F710922F0182E070
:10149000809330011092350110923601089580E753
:1014A00090E09093DC008093DB008091D9009091D4
:1014B000DA008B5D904071F4E091EE00F091EF0066
:1014C00090818091F0008095892380831092DA00CA
:1014D0001092D900089540D008F481E00895E8946E
:1014E00009C097FB3EF490958095709561957F4F6C
:1014F0008F4F9F4F9923A9F0F92F96E9BB2793951A
:10150000F695879577956795B795F111F8CFFAF429
:10151000BB0F11F460FF1BC06F5F7F4F8F4F9F4F5A
:1015200016C0882311F096E911C0772321F09EE8B8
:10153000872F762F05C0662371F096E8862F70E01E
:1015400060E02AF09A95660F771F881FDAF7880FF8
:101550009695879597F90895990F0008550FAA0B4E
:10156000E0E8FEEF16161706E807F907C0F01216B6
:101570001306E407F50798F0621B730B840B950BB9
:1015800039F40A2661F0232B242B252B21F408950E
:101590000A2609F4A140A6958FEF811D811D0895AB
:1015A0000AD080C071D028F076D018F0952309F0C9
:1015B00062C067C0ABC087D0A8F39923D9F3552385
:1015C000C9F3950F50E0551FAA27EE27FF27BB2729
:1015D00000240894679520F4E20FF31FB41F0A1E3D
:1015E000220F331F441FAA1F6695A9F7779530F481
:1015F000F30FB41F0A1E121E08F46395330F441F25
:10160000AA1F221F769599F7879520F4B40F0A1E1A
:10161000121E631F440FAA1F221F331F8695A9F7AE
:10162000862F712D602D11249F5750408AF0E1F0D4
:1016300088234AF0EE0FFF1FBB1F661F771F881F0E
:1016400091505040A9F79E3F510570F014C05EC004
:101650005F3FECF3983EDCF3869577956795B795F9
:10166000F795E7959F5FC1F7FE2B880F911D969523
:10167000879597F9089597F99F6780E870E060E093
:1016800008959FEF80EC089500240A94161617061B
:1016900018060906089500240A9412161306140663
:1016A00005060895092E0394000C11F4882352F0C6
:1016B000BB0F40F4BF2B11F460FF04C06F5F7F4F7E
:1016C0008F4F9F4F089557FD9058440F551F59F065
:1016D0005F3F71F04795880F97FB991F61F09F3F1F
:1016E00079F087950895121613061406551FF2CF48
:1016F0004695F1DF08C0161617061806991FF1CF98
:1017000086957105610508940895E894BB276627BE
:101710007727CB0197F90895E199FECF9FBB8EBB48
:10172000E09A99278DB30895262FE199FECF1CBA30
:101730009FBB8EBB2DBB0FB6F894E29AE19A0FBE09
:101740000196089509DF08F48FEF0895AA1BBB1BCB
:1017500051E107C0AA1FBB1FA617B70710F0A61BB1
:10176000B70B881F991F5A95A9F780959095BC01D2
:10177000CD01089597FB072E16F4009406D077FD4F
:1017800008D0E4DF07FC05D03EF4909581959F4F8B
:101790000895709561957F4F0895EE0FFF1F059096
:1017A000F491E02D099410E0C2E2D0E003C0FE0104
:0E17B000F4DF2196C332D107D1F7F894FFCFB2
:1017BE0063007EFF06000100000000EF0000000045
:1017CE0085024900E102F8025C0276020105090D6C
:0C17DE0002060A0E03070B0F04080C1093
:00000001FF
