:100000001FC043C058C541C040C00BC53EC0B9C4A5
:100010003CC03BC03AC039C038C037C036C0000011
:100020000000370001030000040000000000380059
:100030000202020202020102040810201806440A09
:1000400011241FBECFE5D2E0DEBFCDBF22E0AAE281
:10005000B1E001C01D92A730B207E1F711E0A0E6C0
:10006000B0E0EAE2F9E102C005900D92AA32B107D0
:10007000D9F710E0CFE1D0E003C02197FE0143DCC7
:10008000CE31D107D1F769D644CCBACFEEEBF1E04F
:1000900083819481890F9927991F2581820F911D52
:1000A0002681280F392F311D8781280F311D80852A
:1000B000820F932F911D9195819591099187828748
:1000C000089517B887B187B9369A3699FECF84B1AB
:1000D00095B1089508952FB7F894FC01458556858C
:1000E0003AE06095089420F478B3752378BB04C097
:1000F00078B3742B78BB00008ED48DD48CD48BD481
:1001000066953A9581F72FBF81E090E00895DC0174
:100110001F96ED91FC9120A131A182A193A12817F6
:10012000390779F0A2A1B3A1AE0FBF1F8C9122A114
:1001300033A12F5F3F4F2F71332733A322A390E0CA
:1001400008958FEF9FEF0895DC011F96ED91FC91CC
:1001500020A131A182A193A12817390739F082A1EA
:1001600093A1E80FF91F808190E008958FEF9FEF32
:100170000895DC011F96ED91FC9180A191A122A12F
:1001800033A1821B930B8F7199270895DC01ED91A8
:10019000FC910190F081E02D09940F931F93CF9370
:1001A000DF93EC016DE0F2DF8C016AE0CE01EEDF5F
:1001B000800F911FDF91CF911F910F910895CF92E2
:1001C000DF92EF92FF920F931F93CF93DF936C0117
:1001D000EB017B01E40EF51E10E000E0CE15DF051B
:1001E00061F06991D601ED91FC910190F081E02DD3
:1001F000C6010995080F191FF1CFC801DF91CF91F2
:100200001F910F91FF90EF90DF90CF9008953FB72F
:10021000F89480916B0190916C01A0916D01B09167
:100220006E0122B708B601FE05C02F3F19F00196F6
:10023000A11DB11D3FBFBA2FA92F982F8827BC0140
:10024000CD01620F711D811D911D42E0660F771F68
:10025000881F991F4A95D1F70895CF92DF92EF92A8
:10026000FF92CF93DF936B017C01D1DFEB01CFDFF6
:100270006C1B7D0B683E7340A0F0C114D104E104F7
:10028000F10439F4DF91CF91FF90EF90DF90CF90A0
:10029000089581E0C81AD108E108F108C851DC4F7F
:1002A000E6CFC114D104E104F10409F7EBCF1F93A9
:1002B000CF93DF9314E0D0E0C0E003DFC80FD91F75
:1002C00062E070E080E090E0C8DF1150B1F7BE015D
:1002D00090E080E0F9D828E638EE4FE95BE355D9A5
:1002E00020E030E040E85EE350D9DF91CF911F91EC
:1002F000089520917101309172012817390781F416
:1003000090916F0180917001981751F0E0916F0109
:10031000F0E0E65DFE4F8081082E000C990B0895F9
:100320008FEF9FEF0895209171013091720128178E
:10033000390739F48FB7F8941092700110926F0159
:100340008FBF0895EF92FF920F931F93CF93DF9388
:10035000DC015C96ED90FC905D97E114F10479F47A
:1003600081E090E013969C938E93129790E080E04A
:10037000DF91CF911F910F91FF90EF9008955196CB
:10038000ED91FC91529750968C915097982F9095A3
:100390000FB75E962C915E97122F127021FD60951B
:1003A000F8942081112319F1282B2083E70121974C
:1003B000F1F728E0462F50E0308160FF1AC0382B5B
:1003C0003083E7012197F1F7BA01759567952150C0
:1003D00089F7112381F08081892380830FBF5C9688
:1003E0008D919C910197F1F781E090E0C1CF292395
:1003F000DCCF3923E5CF9081892BEFCF209171019C
:10040000309172012817390769F4809170012091A9
:100410006F0190E0805C9F4F821B910960E470E067
:1004200029DA089590E080E00895209171013091DB
:10043000720128173907B9F490916F01809170010A
:10044000981789F0E0916F01F0E0E65DFE4F808142
:1004500020916F0130E02F5F3F4F2F7333272093A0
:100460006F0190E008958FEF9FEF0895CF92DF9294
:10047000EF92FF921CDF6B017C0126E636E646EA2E
:100480005FE3F4D918167CF42DEC3CEC4CEC5FE304
:10049000C701B60115D887FF06C087E7FF90EF9028
:1004A000DF90CF90089586E6F9CF90E0FC01EC5DF7
:1004B000FF4F3491FC01EA5CFF4F2491FC01E05DA9
:1004C000FF4FE491EE23B9F0332329F03130A1F44A
:1004D0008AB58F778ABDF0E0EE0FFF1FE65DFF4F14
:1004E000A591B4918FB7611118C0F894EC91209543
:1004F0002E232C938FBF0895323019F48AB58F7D47
:10050000E9CF333021F480B78F7D80BFE4CF343022
:1005100011F78CB58F7D8CBDDECFF894EC912E2B2E
:10052000E8CFCF93DF9390E0FC01EA5CFF4F24918A
:10053000805D9F4FFC0184918823C9F090E0880F73
:10054000991FFC01E25EFF4FA591B491FC01E65DAD
:10055000FF4FC591D49161110DC09FB7F8948C9154
:10056000209582238C938881282328839FBFDF9145
:10057000CF910895623051F49FB7F8943C91822F47
:10058000809583238C93E8812E2BEFCF8FB7F8943F
:10059000EC912E2B2C938FBFEACF0F931F9300E487
:1005A00012E42FE030E041E061E086E390E0FBD22E
:1005B000611571058105910529F06F5F7F4F8F4FA0
:1005C0009F4F9F701F910F910895FB010190002094
:1005D000E9F73197AF01461B570BDC01ED91FC9118
:1005E0000280F381E02D09948F929F92AF92BF9287
:1005F000CF92DF92EF92FF920F931F93CF93DF93EF
:10060000CDB7DEB7A1970FB6F894DEBF0FBECDBF52
:100610006C01142FE52FCB01022F19A2223008F410
:100620000AE07E0121E2E20EF11C802E912CB12C19
:10063000A12C612F7E2FA50194012FD9802F622F2D
:1006400076D8181B1A300CF5105DF70112937F0154
:10065000122FE32FCA01232B242B252B51F7B7018F
:10066000C601B3DFA1960FB6F894DEBF0FBECDBFB3
:10067000DF91CF911F910F91FF90EF90DF90CF907E
:10068000BF90AF909F908F900895195CDECFCF926E
:10069000DF92EF92FF92CF93DF936B017C01D0E06A
:1006A000C0E0F7FE0DC06DE288EE91E06FDDEC0179
:1006B000F094E094D094C094C11CD11CE11CF11CB6
:1006C0002AE0B701A60188EE91E08EDF8C0F9D1F16
:1006D000DF91CF91FF90EF90DF90CF900895CF936F
:1006E000DF93BC01990F880B990BD1DFEC0188EEE9
:1006F00091E053DD8C0F9D1FDF91CF910895242F42
:10070000462F50E070E060E06FCF0F931F93CF93C0
:10071000DF93EC015ADF8C01CE013FDD800F911F8A
:10072000DF91CF911F910F9108954FCFAF92BF925C
:10073000CF92DF92EF92FF920F931F93CF93DF93AD
:100740008091BE019091BF01DC01ED91FC9101907F
:10075000F081E02D6091C00109958091BE019091DA
:10076000BF01DC01ED91FC910190F081E02D6091E1
:10077000C10109958091BE019091BF01DC01ED910D
:10078000FC910190F081E02D6091C201099580916A
:10079000BE019091BF01DC01ED91FC910190F081CF
:1007A000E02D6091C30109958091BE019091BF0138
:1007B000DC01ED91FC910190F081E02D6091C4018C
:1007C00009958091BE019091BF01DC01ED91FC91F2
:1007D0000190F081E02D6091C50109958091BE01E5
:1007E0009091BF01DC01ED91FC910190F081E02D31
:1007F0006091C60109958091BE019091BF01DC0115
:10080000ED91FC910190F081E02D6091C701099577
:100810008091BE019091BF01DC01ED91FC910190AE
:10082000F081E02D6091C80109958091BE01909101
:10083000BF01DC01ED91FC910190F081E02D609110
:10084000C90109958091D401882309F48EC060E81C
:1008500070E08CEA91E069DFA090C001B090C10126
:10086000C090C201D090C301E090C401F090C501D6
:100870000091C6011091C701D091C801C091C90172
:1008800066E870E08CEA91E040DF40E150E06A2DDC
:100890008CEA91E034DF60E28CEA91E077DC40E1C1
:1008A00050E06B2D8CEA91E02ADF60E28CEA91E067
:1008B0006DDC40E150E06C2D8CEA91E020DF60E2DD
:1008C0008CEA91E063DC40E150E06D2D8CEA91E030
:1008D00016DF60E28CEA91E059DC40E150E06E2DD9
:1008E0008CEA91E00CDF60E28CEA91E04FDC40E1C1
:1008F00050E06F2D8CEA91E002DF60E28CEA91E03B
:1009000045DC40E150E0602F8CEA91E0F8DE60E2E7
:100910008CEA91E03BDC40E150E0612F8CEA91E011
:10092000EEDE60E28CEA91E031DC40E150E06D2FD8
:100930008CEA91E0E4DE60E28CEA91E027DC40E1C1
:1009400050E06C2F8CEA91E0DADE8CEA91E025DC55
:100950008CEA91E0DF91CF911F910F91FF90EF9082
:10096000DF90CF90BF90AF9018CCDF91CF911F91C7
:100970000F91FF90EF90DF90CF90BF90AF900895D0
:10098000C8C61F920F920FB60F9211242F933F9358
:100990004F935F937F938F939F93AF93BF93EF9307
:1009A000FF934091B80120E038E035D034D033D007
:1009B00032D031D0889476B3742309F00894279507
:1009C0003A9509F0F3CF27D026D0E091BB01F09102
:1009D000BC0180A191A101968F71992742A153A1D9
:1009E0008417950739F0A0A1B1A1AE0FBF1F2C93BA
:1009F00091A380A3449AFF91EF91BF91AF919F91F2
:100A00008F917F915F914F913F912F910F900FBEEA
:100A10000F901F9018958091BD01982F9A95F1F72E
:100A200008951F920F920FB60F9211242F933F93A8
:100A30008F939F93AF93BF938091730190917401B3
:100A4000A0917501B091760130916A0123E0230FE6
:100A50002D3768F126E8230F0296A11DB11D2093C2
:100A60006A018093730190937401A0937501B09310
:100A7000760180916B0190916C01A0916D01B09114
:100A80006E010196A11DB11D80936B0190936C01C5
:100A9000A0936D01B0936E01BF91AF919F918F9123
:100AA0003F912F910F900FBE0F901F9018950196B8
:100AB000A11DB11DD4CF1F920F920FB60F9211241A
:100AC0002F933F934F935F936F937F938F939F9356
:100AD000AF93BF93EF93FF93E0917101F091720197
:100AE000309749F0A685B7858585968D91FF14C00E
:100AF0009C918923A1F4FF91EF91BF91AF919F91B8
:100B00008F917F916F915F914F913F912F910F90B6
:100B10000FBE0F901F9018959C91892361F7A389B0
:100B2000B4899C918589809589238C93868997893E
:100B30000197F1F7608D718DA685B785558538E0F1
:100B400020E0CB010197F1F7822F90E095958795F2
:100B5000282F4C91452309F02068315091F7868D5C
:100B600081FD20958091700190E001968F73992707
:100B700030916F01381799F0A0917001B0E0A65D37
:100B8000BE4F2C9380937001828D938D0197F1F766
:100B9000A389B4898C919589892B8C93ACCF868D50
:100BA0008160868FF1CFCF92DF92EF92FF920F9309
:100BB0001F93E82FF92F08C000C000C000000150AB
:100BC00011092109310949F1908196239417A1F364
:100BD00008C000C000C000000150110921093109FE
:100BE000E1F0908196239413F4CFC12CD12CE12C09
:100BF000F12C0AC08FEFC81AD80AE80AF80A0C15B7
:100C00001D052E053F0549F080818623841791F349
:100C10006C2D7D2D8E2D9F2D04C060E070E080E056
:100C200090E01F910F91FF90EF90DF90CF9008958B
:100C30001092AF011092AE0188EE93E0A0E0B0E018
:100C40008093B0019093B101A093B201B093B3012E
:100C500024E630E03093AD012093AC0128E831E088
:100C60003093BC012093BB0122E02093B80161E0E6
:100C70006093B9012EEF2093BA011092BD0110923A
:100C8000EB011092EA018093EC019093ED01A093A7
:100C9000EE01B093EF0184E790E09093E901809337
:100CA000E8011092FF011092FE01109201021092D1
:100CB000000210920302109202021092050210929A
:100CC0000402809106028E7F8D7F809306028695B6
:100CD0008170682783E0E9DB61E083E022DC88E063
:100CE0008093F80188E390E09093FA018093F901F2
:100CF00060E084E016DC8091060281FD03C061E0C3
:100D000084E0D3DB84E08093F40180E18093F501FB
:100D100086E390E09093F7018093F6011092D5015D
:100D20001092D6011092D7011092D8011092D901D9
:100D30001092DA011092DB011092DC011092DD01B9
:100D40001092DE011092DF011092E0011092E10199
:100D50001092E7011092E601089583E08ABD83BFF7
:100D6000789489B7826089BF80E48CBD8FEF8DBD98
:100D700087EC80BF87E886B91092030210920202C6
:100D800010920102109200021092FF011092FE01D7
:100D90008DE991E090930502809304023091F40173
:100DA000363020F54DEB50E05093FF014093FE01AB
:100DB0004BE951E050930102409300024CE251E0B4
:100DC00050930302409302022BB720622BBF45E3EE
:100DD00050E05093FC014093FB0121E001C0220F41
:100DE0003A95EAF72093FD010197F1F7809102020D
:100DF00090910302892B49F1E0917101F091720108
:100E000081E0E83EF80709F1309739F0A389B48909
:100E10009C918589809589238C93809106028E7F91
:100E2000809306021092700110926F0188EE91E09B
:100E30009093720180937101E091FB01F091FC01AC
:100E400080819091FD01892B808384E690E0A0E071
:100E5000B0E08093E2019093E301A093E401B093AA
:100E6000E5011092D5018093DE019093DF01A093FC
:100E7000E001B093E1012FB7F89480917301909154
:100E80007401A0917501B09176012FBF8093DA01B2
:100E90009093DB01A093DC01B093DD0188EE91E03B
:100EA0009093BF018093BE011092D4012EE720934E
:100EB000C0019FEF9093C101C6E0C093C2018FEEC5
:100EC0008093C9012093CA019093CB01C093CC01B8
:100ED0008093D30168EE73E080E090E0BED9C093C8
:100EE000C3011092C4011092C5018CE18093C60128
:100EF000CDD81CDC64E670E080E090E0AED962E022
:100F000080E00FDB61E082E00CDB60E082E0CDDAC4
:100F10006AEF70E080E090E0A0D961E082E0C5DA9D
:100F20006AEF70E080E090E098D960E082E0BDDA9E
:100F30006AEF70E080E090E090D961E082E0B5DA9D
:100F4000B6D96B017C01C0927C01D0927D01E09208
:100F50007E01F0927F0126E636E646EA5FE386D41C
:100F600018160CF091C02DEC3CEC4CEC5FE3C70183
:100F7000B601A6D287FF88C060E082E096DA76DA12
:100F800066E970E080E090E068D970DA8737C1F7F1
:100F900068EE73E080E090E060D9C0E0D1E066DA0E
:100FA000182FCD276C2F82E080DA68EC70E080E0AB
:100FB00090E053D95BDA163611F4863681F3EDDA18
:100FC000D62F062F172F60E082E06FDA68EE73E00D
:100FD00080E090E042D961E082E067DAFF24F39498
:100FE00045DAE82ECF256C2F82E05FDA68EC70E0FE
:100FF00080E090E032D93ADA97E7E91202C0873709
:1010000079F360E082E051DAFF24F3942FDAE82EDE
:10101000CF256C2F82E049DA68EC70E080E090E048
:101020001CD924DA96E6E91202C0863679F3B5DADD
:101030006B0161E082E039DA68EE73E080E090E015
:101040000CD90C151D0508F08FC189E0C81AD1080C
:101050006D2D90E080E094DC6C2D81E090E090DCE0
:1010600063E382E090E08CDC612F83E090E088DC39
:101070006D2F84E090E084DCD4E011E0C1276C2F78
:1010800082E013DAD150D1F790E080E03AD3D82F44
:1010900081E090E036D3C82F982F8D2F9093780160
:1010A0008093770183E090E02CD3809379016DE801
:1010B00070E088EE91E039DB4AE050E06D2F88EE79
:1010C00091E01DDB65E970E088EE91E02EDB4AE0FF
:1010D00050E06C2F88EE91E012DB6EE970E088EE54
:1010E00091E023DB409177015091780170E060E05E
:1010F0002AE088EE91E078DA6AEA70E088EE91E022
:1011000014DB809179016DEB70E0833311F06AECB0
:1011100070E088EE91E0F9DA3324339488E0882E89
:10112000C3E0D0E092E0292E02E010E0AA24A394CC
:10113000B12C33E1932E8091800181110DC08FB7C6
:10114000F894409173015091740160917501709110
:1011500076018FBF30928001B4D7BC0190E080E06F
:10116000B3D128E638EE4FE95BE30FD260937C0100
:1011700070937D0180937E0190937F0163ED70E019
:1011800088EE91E0D2DAC0907C01D0907D01E090B1
:101190007E01F0907F0120E030E0A901C701B60197
:1011A0008FD187FF08C06DE288EE91E0EFD7F7FAA4
:1011B000F094F7F8F0942AE037ED43EA5BE3C701D7
:1011C000B601BFD22B013C0125D36B017C017CD140
:1011D0009B01AC01C301B201B3D22B013C012AE057
:1011E000B701A60188EE91E0FFD96DED70E088EEC1
:1011F00091E0EBD920E030E040E251E4C301B201DC
:10120000C4D12B013C0101D36B01770FEE08FF081D
:10121000C701B6013CDAC701B60158D19B01AC0148
:10122000C301B2018DD220E030E040E251E4ADD103
:10123000ECD2072E000C880B990B29DA88EE91E08E
:10124000ACD768EE73E080E090E007D840907C0176
:1012500050907D0160907E0170907F01E0907A0156
:10126000F0907B01DD24D3942AE037ED43E850E48D
:10127000C301B201FBD218160CF0D12C2AE939E9CE
:1012800049E850E4C301B2011BD1881F8827881F99
:10129000D82209F47AC081E0E816F10409F475C097
:1012A0008092C3011092C4011092C5013092C60110
:1012B000EDD63CDAB0927B01A0927A016FED70E03E
:1012C00088EE91E032DA80917A0190917B0107DA21
:1012D00064D92B013C016FE171E088EE91E025DAE1
:1012E000B301A201662777272AE088EE91E07CD936
:1012F00080917901833309F0A8C0809177019091A2
:1013000078018415950508F016CF80917A019091A7
:101310007B018230910509F4A4C08330910509F462
:10132000A9C0019751F49092C3011092C401109288
:10133000C5013092C601AAD6F9D960E082E0B5D8DD
:1013400068E273E280E090E088D795E19093C30172
:101350001092C4011092C5011092C60197D6E6D929
:1013600061E082E0A2D8E7CEC016D10608F084CEB4
:1013700099E0C90ED11C6D2D90E080E001DB6C2D51
:1013800081E090E0FDDA62E26CCEDD24D3942DECB6
:101390003CEC4CE750E4C301B20168D218160CF0E3
:1013A000D12C28E431EE42E850E4C301B20188D0E8
:1013B000881F8827881FD822A9F092E0E916F10437
:1013C00089F08092C3011092C4011092C50120924D
:1013D000C6015CD6ABD910937B0100937A0164EF10
:1013E00070E06ECFDD24D39426E636E646E650E480
:1013F000C301B2013BD218160CF0D12C2AE939E90D
:1014000049E750E4C301B2015BD0881F8827881FD9
:10141000D82209F45DCF83E0E816F10409F458CF2F
:101420008092C3011092C4011092C50193E0909381
:10143000C6012CD67BD9D0937B01C0937A0168E09A
:1014400071E088EE91E061D93ECF823209F073CE2F
:1014500080917701909178014816590608F455CF8C
:101460006ACE9092C3011092C4011092C5012092DD
:10147000C60161CF9092C3011092C4011092C501C0
:1014800083E08093C60157CF84E790E09093E90111
:101490008093E8018091710190917201885E914082
:1014A00071F4E091FB01F091FC0190818091FD01CC
:1014B00080958923808310927201109271010895A2
:1014C00040D008F481E00895E89409C097FB3EF409
:1014D00090958095709561957F4F8F4F9F4F992381
:1014E000A9F0F92F96E9BB279395F69587957795FF
:1014F0006795B795F111F8CFFAF4BB0F11F460FFBF
:101500001BC06F5F7F4F8F4F9F4F16C0882311F016
:1015100096E911C0772321F09EE8872F762F05C02A
:10152000662371F096E8862F70E060E02AF09A95C5
:10153000660F771F881FDAF7880F9695879597F9BA
:101540000895990F0008550FAA0BE0E8FEEF161654
:101550001706E807F907C0F012161306E407F507A7
:1015600098F0621B730B840B950B39F40A2661F01B
:10157000232B242B252B21F408950A2609F4A140BE
:10158000A6958FEF811D811D08950AD080C071D06E
:1015900028F076D018F0952309F062C067C0ABC080
:1015A00087D0A8F39923D9F35523C9F3950F50E0B9
:1015B000551FAA27EE27FF27BB270024089467950D
:1015C00020F4E20FF31FB41F0A1E220F331F441F23
:1015D000AA1F6695A9F7779530F4F30FB41F0A1E7A
:1015E000121E08F46395330F441FAA1F221F76951D
:1015F00099F7879520F4B40F0A1E121E631F440F3B
:10160000AA1F221F331F8695A9F7862F712D602DE3
:1016100011249F5750408AF0E1F088234AF0EE0FE2
:10162000FF1FBB1F661F771F881F91505040A9F7EF
:101630009E3F510570F014C05EC05F3FECF3983ED2
:10164000DCF3869577956795B795F795E7959F5F56
:10165000C1F7FE2B880F911D9695879597F90895F0
:1016600097F99F6780E870E060E008959FEF80EC55
:10167000089500240A9416161706180609060895F8
:1016800000240A9412161306140605060895092E5E
:101690000394000C11F4882352F0BB0F40F4BF2BCD
:1016A00011F460FF04C06F5F7F4F8F4F9F4F08950D
:1016B00057FD9058440F551F59F05F3F71F0479503
:1016C000880F97FB991F61F09F3F79F087950895E8
:1016D000121613061406551FF2CF4695F1DF08C007
:1016E000161617061806991FF1CF86957105610524
:1016F00008940895E894BB2766277727CB0197F9CC
:101700000895E199FECF9FBB8EBBE09A99278DB3D8
:101710000895262FE199FECF1CBA9FBB8EBB2DBB2F
:101720000FB6F894E29AE19A0FBE0196089500244C
:1017300080FD060E660F11F08695D1F7802D089575
:101740005058BB27AA270ED0A2CF93DF30F098DFE6
:1017500020F031F49F3F11F41EF488CF0EF4E09591
:10176000E7FB7ECFE92FA4DF80F3BA176207730788
:101770008407950718F071F49EF5BCCF0EF4E09540
:101780000B2EBA2FA02D0B01B90190010C01CA013B
:10179000A0011124FF27591B99F0593F50F4503EE6
:1017A00068F11A16F040A22F232F342F4427585FD8
:1017B000F3CF469537952795A795F0405395C9F7F0
:1017C0007EF41F16BA0B620B730B840BBAF09150A8
:1017D000A1F0FF0FBB1F661F771F881FC2F70EC047
:1017E000BA0F621F731F841F48F48795779567951A
:1017F000B795F7959E3F08F0B3CF9395880F08F003
:101800009927EE0F97958795089504D06894B111A4
:1018100072CF089555DF88F09F5790F0B92F992720
:10182000B751A0F0D1F0660F771F881F991F1AF0EB
:10183000BA95C9F712C0B13081F05CDFB1E008950C
:1018400059CF672F782F8827B85F39F0B93FCCF38D
:10185000869577956795B395D9F73EF490958095E1
:10186000709561957F4F8F4F9F4F08956ADE08F402
:101870008FEF089597FB072E16F4009406D077FD9E
:1018800008D02DD007FC05D03EF4909581959F4F50
:101890000895709561957F4F0895A1E21A2EAA1BB5
:1018A000BB1BFD010DC0AA1FBB1FEE1FFF1FA21710
:1018B000B307E407F50720F0A21BB30BE40BF50B0D
:1018C000661F771F881F991F1A9469F76095709596
:1018D000809590959B01AC01BD01CF010895AA1B95
:1018E000BB1B51E107C0AA1FBB1FA617B70710F00B
:1018F000A61BB70B881F991F5A95A9F7809590953D
:10190000BC01CD010895EE0FFF1F0590F491E02D6D
:10191000099410E0CFE1D0E003C0FE01F4DF21968E
:0A192000C032D107D1F7F894FFCFD1
:10192A00000000006B00DF00B9008700A4006A0015
:10193A0000000000A201DF00FE01150279019301F7
:10194A0053656E742000537461636B3A004C696D81
:10195A006C6F3A2000094C696D68693A200050752D
:10196A006C73656C696D69743D0009204772656125
:10197A00744F724C6573735468616E200047524508
:10198A0041544845525448414E004C4553535448DB
:10199A00414E00566F6C746167653A20002E004E06
:1019AA006176792044696573656C2C20736F756E56
:1019BA0064733D005475672044696573656C2073D0
:1019CA006F756E64733D2000537465616D20456EBA
:1019DA0067696E652C20736F756E64733D200050C5
:0A19EA00574D54696D653A20000066
:00000001FF
