:10000000E9C00DC1DBC80BC10AC18EC808C13CC81C
:1000100006C105C104C103C102C101C100C1000084
:100020000000370001030000040000C201000000CE
:100030000E000E000C0000E100000500220022006E
:100040002000009600000F00360036003400127ABF
:1000500000001700430043004100807000001A00B8
:100060004A004A004800004B00002C00710071005B
:100070007000403800004A009C00990099008025DB
:1000800000007200EA00EA00E900C0120000E90086
:10009000DA01DA01D70160090000D701AC03AC0333
:1000A000B103B0040000B3036E076E0767072C01AD
:1000B0000000DC0EC11DC11DBE1D4E6F2050574DEE
:1000C00020666F756E640043757272656E7420747D
:1000D00068726F74746C6520005468726F74746C0D
:1000E00065204F4B200043757272656E7420686FF7
:1000F000726E2000486F726E204F4B200050574D9B
:100100002064657465637465643A00203C20746FF4
:10011000206F70657261746500203E20746F206FDF
:100120007065726174652E002C206D757374206289
:10013000652000486F726E206C696D6974200072D2
:10014000657665727365642E006E6F726D616C2EDC
:10015000005468726F74746C652069732000526576
:100160007665727365205468726F74746C65206C68
:10017000696D697420004E65757472616C2000466B
:100180006F7277617264205468726F74746C65204A
:100190006C696D697420000A454550524F4D2053DB
:1001A000657474696E67733A004D696C6C6973208D
:1001B00073746172743A200000000000380000007F
:1001C00000003600020202020202010204081020AE
:1001D00068099B0D11241FBECFE5D2E0DEBFCDBF65
:1001E00021E0A0EBB0E001C01D92A63AB207E1F712
:1001F00010E0A0E6B0E0E0ECFEE102C005900D9258
:10020000A03BB107D9F710E0C9EED0E003C02197B9
:10021000FE0144DEC83ED107D1F716D945CEF0CE57
:10022000E0E6F1E083819481890F9927991F258168
:10023000820F911D2681280F392F311D8781280FAC
:10024000311D8085820F932F911D91958195910984
:1002500091878287089508952FB7F894FC0145850A
:1002600056853AE06095089420F478B3752378BBFE
:1002700004C078B3742B78BB000050D74FD74ED74B
:100280004DD766953A9581F72FBF81E090E00895AC
:10029000DC011F96ED91FC9120A131A182A193A1D7
:1002A0002817390779F0A2A1B3A1AE0FBF1F8C9117
:1002B00022A133A12F5F3F4F2F71332733A322A3F6
:1002C00090E008958FEF9FEF0895DC011F96ED9168
:1002D000FC9120A131A182A193A12817390739F0FF
:1002E00082A193A1E80FF91F808190E008958FEF1C
:1002F0009FEF0895DC011F96ED91FC9180A191A1E3
:1003000022A133A1821B930B8F7199270895DC01E1
:10031000ED91FC910190F081E02D09940F931F93D2
:10032000CF93DF93EC016DE0F2DF8C016AE0CE0148
:10033000EEDF800F911FDF91CF911F910F910895F4
:10034000CF92DF92EF92FF920F931F93CF93DF93A1
:100350006C01EB017B01E40EF51E10E000E0CE1510
:10036000DF0561F06991D601ED91FC910190F0817A
:10037000E02DC6010995080F191FF1CFC801DF91C3
:10038000CF911F910F91FF90EF90DF90CF90089544
:100390003FB7F8948091F5009091F600A091F70096
:1003A000B091F80022B708B601FE05C02F3F19F042
:1003B0000196A11DB11D3FBFBA2FA92F982F8827E5
:1003C000BC01CD01620F711D811D911D42E0660FC0
:1003D000771F881F991F4A95D1F70895CF92DF9212
:1003E000EF92FF92CF93DF936B017C01D1DFEB01A2
:1003F000C114D104E104F10441F412C081E0C81A2F
:10040000D108E108F108C851DC4FC2DF6C1B7D0B3D
:10041000683E734068F3C114D104E104F10471F73C
:10042000DF91CF91FF90EF90DF90CF9008951F93D1
:10043000CF93DF9314E0D0E0C0E017B887B187B95D
:10044000369A3699FECF94B185B1892798278927A6
:10045000C80FD91F62E070E080E090E0BFDF11506C
:1004600061F7BE0190E080E07FDB28E638EE4FE9DF
:100470005BE3DBDB20E030E040E85EE3D6DBDF91EE
:10048000CF911F9108952FB7F8946091F10070916A
:10049000F2008091F3009091F4002FBF0895DC01E9
:1004A0005196ED91FC915297908150968C91809548
:1004B0008923808308952091FB003091FC00281748
:1004C000390781F49091F9008091FA00981751F062
:1004D000E091F900F0E0E055FF4F8081082E000C1C
:1004E000990B08958FEF9FEF08952091FB003091B5
:1004F000FC002817390739F48FB7F8941092FA00E6
:100500001092F9008FBF08952091FB003091FC00FC
:100510002817390769F48091FA002091F90090E0DA
:10052000805C9F4F821B910960E470E06EDC08954F
:1005300090E080E008952091FB003091FC002817A6
:100540003907B9F49091F9008091FA00981789F071
:10055000E091F900F0E0E055FF4F80812091F90033
:1005600030E02F5F3F4F2F7333272093F90090E047
:1005700008958FEF9FEF089520E001972FEF8F3FB1
:100580009207D9F70895EF92FF920F931F93CF939D
:10059000DF93C091FB00D091FC00209749F0EE85DD
:1005A000FF859D858B8D81FF0AC08081892351F451
:1005B000DF91CF911F910F91FF90EF90089580816F
:1005C0008923B1F78B899C89D7DF88E0E82EF12C4D
:1005D00010E001E08D899E89CFDFEE85FF85808167
:1005E0009D85892331F1102B000F81E0E81AF10875
:1005F00089F78F89988DC0DF8B8D81FD1095809153
:10060000FA002091F90090E001968F73992728173E
:10061000190699F0E091FA00F0E0E055FF4F1083E1
:100620008091FA0090E001968F7399278093FA00E9
:10063000BFCF802F80951823D7CF8B8D81608B8F74
:10064000B7CFCF92DF92EF92FF92F1DE6B017C0188
:1006500026E636E646E350E4C3DB18167CF42AE9C6
:1006600039E949E450E4C701B6017ADA87FF06C0E8
:1006700087E7FF90EF90DF90CF90089586E6F9CF5F
:1006800080910901843319F5809107019091080147
:100690002091FD003091FE00281B390B36952795DF
:1006A00036952795820F931F90930601809305013D
:1006B000820F931F9093040180930301820F931F75
:1006C000909302018093010110921B0108958332DF
:1006D000D9F780910701909108012091FD00309198
:1006E000FE00AC01421B530B9A01369527953695B7
:1006F0002795821B930B9093060180930501821B23
:10070000930B9093040180930301821B930BD8CF2A
:10071000DF92EF92FF920F931F93CF93DF93EC0141
:10072000898D9A8D892B71F481E090E09B838A8377
:1007300090E080E0DF91CF911F910F91FF90EF90BB
:10074000DF900895162FDFB6F8948B8D81FD22C0BF
:10075000CE01A5DE898D9A8D0FDF8B8D98E0E92E75
:10076000F12C01E081FF24C0812F8023D1F0CE0144
:1007700096DE898D9A8D00DF000F81E0E81AF1087E
:1007800099F7CE018CDEDFBE898D9A8DF5DE81E092
:1007900090E0D0CFE989FA8980819889892B80837C
:1007A000D9CFE989FA8980819889892B8083E1CF23
:1007B000812F8023A9F0E989FA8980819889892B82
:1007C0008083898D9A8DD8DE000F81E0E81AF108C8
:1007D00079F7E989FA8980819889892B8083D3CF39
:1007E000CE015DDEEECF0F931F93CF93DF938C018D
:1007F000D0E0C0E0F801EC0FFD1F6491662339F0F2
:100800008AE891E085DF892B11F02196F3CFCE01A4
:10081000DF91CF911F910F910895CF93DF93E3DF85
:10082000EC018AE891E07ADD8C0F9D1FDF91CF917A
:10083000089590E0FC01EC5DFF4F3491FC01E6531C
:10084000FE4F2491FC01EC53FE4FE491EE23B9F0EE
:10085000332329F03130A1F48AB58F778ABDF0E0D7
:10086000EE0FFF1FE854FE4FA591B4918FB76111B1
:1008700018C0F894EC9120952E232C938FBF0895E7
:10088000323019F48AB58F7DE9CF333021F480B747
:100890008F7D80BFE4CF343011F78CB58F7D8CBD58
:1008A000DECFF894EC912E2BE8CF8F929F92AF92EF
:1008B000BF92CF92DF92EF92FF92CF93DF93D82F28
:1008C000C0E04B01B12CA12C6A01F12CE12C60E0BD
:1008D00082E0AFDFC501B40181DD61E082E0A9DF24
:1008E000C701B6017BDDCF5FDC13F1CFDF91CF9184
:1008F000FF90EF90DF90CF90BF90AF909F908F9040
:100900000895CF93DF9390E0FC01E653FE4F2491CE
:100910008C539E4FFC0184918823C9F090E0880F8E
:10092000991FFC01E25EFF4FA591B491FC01E854D0
:10093000FE4FC591D49161110DC09FB7F8948C9171
:10094000209582238C938881282328839FBFDF9161
:10095000CF910895623051F49FB7F8943C91822F63
:10096000809583238C93E8812E2BEFCF8FB7F8945B
:10097000EC912E2B2C938FBFEACF0F931F938A01FC
:100980009B0190E0FC01E653FE4F6491FC01EC53A7
:10099000FE4FE491F0E0EE0FFF1FE254FE4F859111
:1009A0009491462F50D4611571058105910529F068
:1009B0006F5F7F4F8F4F9F4F9F701F910F910895D3
:1009C00040EF55E560E070E080E0D7DF70931701FD
:1009D0006093160180910C018A50823050F440EFF0
:1009E00055E560E070E081E0C8DF70930B01609333
:1009F0000A010895CF92DF92EF92FF9240E452E411
:100A00006FE070E080E0B9DF6B0140E452E46FE03A
:100A100070E081E0B2DF21E2C21A23E0D20A21E0D5
:100A200033EAC31636E0D30608F020E0AB014152AA
:100A30005340433A564008F4265F822FFF90EF90D0
:100A4000DF90CF900895FB0101900020E9F73197E6
:100A5000AF01461B570BDC01ED91FC910280F38145
:100A6000E02D09948F929F92AF92BF92CF92DF9226
:100A7000EF92FF920F931F93CF93DF93CDB7DEB723
:100A8000A1970FB6F894DEBF0FBECDBF6C01142F37
:100A9000E52FCB01022F19A2223008F40AE07E01D3
:100AA00021E2E20EF11C802E912CB12CA12C612FA1
:100AB0007E2FA5019401BCD9802F622F88D9181BE5
:100AC0001A300CF5105DF70112937F01122FE32FFE
:100AD000CA01232B242B252B51F7B701C601B3DF05
:100AE000A1960FB6F894DEBF0FBECDBFDF91CF91B8
:100AF0001F910F91FF90EF90DF90CF90BF90AF903C
:100B00009F908F900895195CDECF482F50E070E0E1
:100B100060E020E184E491E0A5CFAF92BF92CF9254
:100B2000DF92EF92FF920F931F93CF93DF93809109
:100B3000600190916101DC01ED91FC910190F081E7
:100B4000E02D6091620109958091600190916101B1
:100B5000DC01ED91FC910190F081E02D6091630149
:100B600009958091600190916101DC01ED91FC910A
:100B70000190F081E02D6091640109958091600100
:100B800090916101DC01ED91FC910190F081E02DEB
:100B90006091650109958091600190916101DC018E
:100BA000ED91FC910190F081E02D60916601099535
:100BB0008091600190916101DC01ED91FC910190C7
:100BC000F081E02D6091670109958091600190911D
:100BD0006101DC01ED91FC910190F081E02D6091CB
:100BE000680109958091600190916101DC01ED91AE
:100BF000FC910190F081E02D60916901099580914F
:100C0000600190916101DC01ED91FC910190F08116
:100C1000E02D60916A0109958091600190916101D8
:100C2000DC01ED91FC910190F081E02D60916B0170
:100C3000099580917601882309F469C066E970E01E
:100C400084E491E000DFA0906201B0906301C09065
:100C50006401D0906501E0906601F0906701009119
:100C6000680110916901D0916A01C0916B016CE932
:100C700070E084E491E0E7DE84E491E04FDB8A2DCC
:100C800044DF60E284E491E042DB8B2D3EDF60E2F2
:100C900084E491E03CDB8C2D38DF60E284E491E079
:100CA00036DB8D2D32DF60E284E491E030DB8E2D87
:100CB0002CDF60E284E491E02ADB8F2D26DF60E206
:100CC00084E491E024DB802F20DF60E284E491E083
:100CD0001EDB812F1ADF60E284E491E018DB8D2FA8
:100CE00014DF60E284E491E012DB8C2F0EDF84E4F9
:100CF00091E014DB84E491E0DF91CF911F910F919B
:100D0000FF90EF90DF90CF90BF90AF9007CBDF9137
:100D1000CF911F910F91FF90EF90DF90CF90BF90F8
:100D2000AF900895E0E6F1E098E09583168217828F
:100D3000808776DAF2CECF93DF93AC0170E060E08B
:100D40002AE08AE891E08EDEEC018AE891E0E6DABA
:100D50008C0F9D1FDF91CF9108952BC86F927F92CA
:100D60008F929F92AF92BF92CF92DF92EF92FF92BB
:100D70000F931F93CF93DF9364DCC82F68EC70E070
:100D800080E090E02BDB5DDCC63611F48636A1F303
:100D900040EF55E560E070E081E0EFDD3B014CE2C3
:100DA00051E06CE271E083E080DD4BDCC82F68EC41
:100DB00070E080E090E012DB44DCC73711F4873745
:100DC000A1F33FDCC82F68EC70E080E090E006DB28
:100DD00038DCC63611F48636A1F34CE251E06CE201
:100DE00071E084E062DD40EF55E560E070E081E0B5
:100DF000C4DD4B018B0125DCC82F68EC70E080E07E
:100E000090E0ECDA1EDCC73711F48737A1F319DC68
:100E1000C82F68EC70E080E090E0E0DA12DCC636C3
:100E200011F48636A1F340EF55E560E070E081E013
:100E3000A4DD6B01EB014CE251E06CE271E085E076
:100E400034DDC016D10680F58401055E1F4F6B9717
:100E500064E389E090E081DF602F83E090E07DDF54
:100E6000612F84E090E079DF662D85E090E075DF0A
:100E7000672D86E090E071DF6C2F87E090E06DDFFA
:100E80006D2F88E090E069DF81E0DF91CF911F91C5
:100E90000F91FF90EF90DF90CF90BF90AF909F9019
:100EA0008F907F906F9008950C151D05A8F6840112
:100EB0000B5111096B9663E2CCCFCF92DF92EF9288
:100EC000FF920F931F93CF93DF93BBDBC82F68EC88
:100ED00070E080E090E082DAB4DBC63611F486364A
:100EE000A1F340EF55E560E070E080E046DDEB0106
:100EF0004CE251E06CE271E081E0D7DCA2DB182F1C
:100F000068EC70E080E090E069DA9BDB173711F461
:100F10008737A1F396DB182F68EC70E080E090E053
:100F20005DDA8FDB163611F48636A1F340EF55E516
:100F300060E070E080E021DD6B014CE251E06CE2AA
:100F400071E082E0B2DCCC15DD05C8F48BE1C81A93
:100F5000D1086C2D90E080E000DF6D2D81E090E005
:100F6000FCDE63E382E090E0F8DE81E0DF91CF9188
:100F70001F910F91FF90EF90DF90CF900895CC16C6
:100F8000DD0698F78BE1C80ED11C6C2D90E080E057
:100F9000E4DE6D2D81E090E0E0DE62E2E3CF60ED23
:100FA00090E080E0DADE67E081E090E0D6DE63E3A7
:100FB00082E090E0D2DE60ED83E090E0CEDE67E09C
:100FC00084E090E0CADE6CED85E090E0C6DE65E08E
:100FD00086E090E0C2DE68EE87E090E0BEDE63E08F
:100FE00088E090E0BADE64E389E090E0B6DE64E594
:100FF00080E091E0B2DE4CE251E06CEB72E084E024
:1010000054DC0895CEC6CF9390E080E0FBDFC82F7C
:1010100081E090E0F7DF982F8C2F9093130180935D
:10102000120182E090E0EEDF8093140183E090E013
:10103000E9DFC82F84E090E0E5DF982F8C2F9093B4
:10104000FE008093FD0085E090E0DCDFC82F86E0A5
:1010500090E0D8DF982F8C2F9093080180930701A0
:1010600087E090E0CFDFC82F88E090E0CBDF982FBB
:101070008C2F909300018093FF0089E090E0C2DF05
:1010800080930901CF9108951F920F920FB60F928E
:1010900011242F933F934F935F937F938F939F934D
:1010A000AF93BF93EF93FF934091500120E038E05E
:1010B00035D034D033D032D031D0889476B3742345
:1010C00009F0089427953A9509F0F3CF27D026D058
:1010D000E0915301F091540180A191A101968F718B
:1010E000992742A153A18417950739F0A0A1B1A176
:1010F000AE0FBF1F2C9391A380A3449AFF91EF9151
:10110000BF91AF919F918F917F915F914F913F914F
:101110002F910F900FBE0F901F9018958091550141
:10112000982F9A95F1F708951F920F920FB60F928C
:1011300011242F933F938F939F93AF93BF938091ED
:10114000F1009091F200A091F300B091F400309181
:10115000F00023E0230F2D3768F126E8230F0296D5
:10116000A11DB11D2093F0008093F1009093F20037
:10117000A093F300B093F4008091F5009091F600F5
:10118000A091F700B091F8000196A11DB11D8093C8
:10119000F5009093F600A093F700B093F800BF918C
:1011A000AF919F918F913F912F910F900FBE0F9014
:1011B0001F9018950196A11DB11DD4CF1F920F92BB
:1011C0000FB60F9211242F933F934F935F936F931A
:1011D0007F938F939F93AF93BF93CF93EF93FF939F
:1011E00086B395B3892380935F0180915E019091CE
:1011F0005F01892780935D0180915F0180935E018B
:10120000C0E080915C01C81760F4EC2FF0E0EE0FB5
:10121000FF1FEA5AFE4F0190F081E02D0995CF5F44
:10122000F0CFFF91EF91CF91BF91AF919F918F91AF
:101230007F916F915F914F913F912F910F900FBED2
:101240000F901F901895CF92DF92EF92FF920F931D
:101250001F93E82FF92F08C000C000C00000015004
:1012600011092109310949F1908196239417A1F3BD
:1012700008C000C000C00000015011092109310957
:10128000E1F0908196239413F4CFC12CD12CE12C62
:10129000F12C0AC08FEFC81AD80AE80AF80A0C1510
:1012A0001D052E053F0549F080818623841791F3A3
:1012B0006C2D7D2D8E2D9F2D04C060E070E080E0B0
:1012C00090E01F910F91FF90EF90DF90CF900895E5
:1012D000109247011092460188EE93E0A0E0B0E042
:1012E0008093480190934901A0934A01B0934B0128
:1012F0002AE730E0309345012093440120E231E0B9
:10130000309354012093530122E02093500121E0B7
:10131000209351012EEF209352011092550110920B
:101320008D0110928C0180938E0190938F01A09378
:101330009001B09391018AE890E090938B018093A3
:101340008A0110929E0110929D011092A0011092AC
:101350009F011092A2011092A1011092A40110927B
:10136000A3018091A5018E7F8D7F8093A50160E010
:1013700084E0C7DA8091A50181FD03C061E084E0CB
:1013800058DA84E08093960180E18093970186E3A8
:1013900090E0909399018093980188E080939A015E
:1013A00061E083E0AEDA61E083E043DA88E390E075
:1013B00090939C0180939B018091560190915701DD
:1013C000835C924011F18091580190915901835CA6
:1013D0009240D9F080915A0190915B01835C9240D8
:1013E000A1F080915C01833080F4E0915C01F0E039
:1013F000EE0FFF1FEA5AFE4F83EC92E09183808349
:1014000080915C018F5F80935C0110927701109254
:1014100078011092790110927A0110927B0110925A
:101420007C0110927D0110927E0110927F0110923A
:10143000800110928101109282011092830110921A
:10144000890110928801089583E08ABD83BF789452
:1014500089B7826089BF80E48CBD8FEF8DBD87EC3A
:1014600080BF87E886B961E082E04BDA60E082E025
:10147000E0D91092A4011092A3011092A20110923F
:10148000A1011092A00110929F0110929E01109252
:101490009D0190E080E0FC01E65DFF4F4591559194
:1014A00065917491403855426105710509F04EC24D
:1014B000FC01E25DFF4F2591349130939E01209312
:1014C0009D01FC01E05DFF4F259134913093A00117
:1014D00020939F01FC01EE5CFF4F259134913093E6
:1014E000A2012093A101FC01EC5CFF4F8591949136
:1014F0009093A4018093A3018091A1019091A201F6
:10150000892BA9F090919601963060F48BB7806298
:101510008BBF85B321E030E001C0220F9A95EAF736
:10152000822B85BB8091A3019091A40125D8809145
:10153000FB009091FC008A58914091F08091A501A8
:101540008E7F8093A5018FB7F8941092FA001092C5
:10155000F9002AE831E03093FC002093FB008FBFB4
:1015600084E690E0A0E0B0E0809384019093850150
:10157000A0938601B0938701109277018093800138
:1015800090938101A0938201B09383017CD76093F3
:101590007C0170937D0180937E0190937F018AE8A6
:1015A00091E09093610180936001109276012EE7A3
:1015B000209362019FEF90936301D6E0D093640182
:1015C0008FEE80936B0120936C0190936D01D0930B
:1015D0006E018093750168EE73E080E090E0FED6C6
:1015E000D093650110926601109267018CE180939F
:1015F000680116D692DA62E080E083D962E081E089
:1016000080D915D76B017C01C0921C01D0921D01BD
:10161000E0921E01F0921F0126E636E646E350E412
:10162000DFD3181614F52AE939E949E450E4C70173
:10163000B60196D287FF19C004D825D78B014CE29A
:1016400051E06CE271E086E030D9FBD7D82F68EC2E
:1016500070E080E090E0C2D6F4D715D7601B710B24
:101660006131774208F478C19ADC80E091E0CADC0D
:10167000843509F087C1C7DC03D861E082E0D9D89E
:10168000B9D980930C019CD987E991E0C6D88FE73E
:1016900091E0A9D88091FD009091FE004CDB86E797
:1016A00091E0A1D8809107019091080144DB8EE57B
:1016B00091E099D88091FF00909100013CDB81E599
:1016C00091E091D880910901843309F05DC189E4EA
:1016D00091E0A3D883E391E086D840911201509124
:1016E000130170E060E02AE08AE891E0BBD988E26B
:1016F00091E079D880911401833309F048C189E1E0
:1017000091E08BD88DEF90E06ED880910C01813004
:1017100011F08B3059F484EF90E07FD886EE90E0A2
:1017200062D8809116019091170105DB80910C0120
:101730008A50823008F02EC189ED90E06ED887EC97
:1017400090E051D880910A0190910B01F4DAD1E038
:1017500083E0E82EF12C92E0C92ED12CAA24A39488
:10176000B12C33E1932E63D660931C0170931D015D
:1017700080931E0190931F0123D980910C01823028
:1017800008F443C180910A0190910B012091070157
:1017900030910801A9014B5151096091090164334D
:1017A00009F0FCC04817590738F4B901655E7F4F4E
:1017B0008617970708F429C1E0910501F091060109
:1017C0002B5D3F4F2817390738F49F012A50310904
:1017D0008217930708F41BC1609103017091040103
:1017E0003A96E817F90738F49B012A503109821715
:1017F000930708F408C12091010130910201665F4E
:101800007F4F6817790738F4B9016A507109861754
:10181000970708F4FEC0265F3F4F2817390708F4E2
:10182000FAC08417950740F42091FF003091000121
:101830002817390708F4E7C0C0931B0180911A01EB
:10184000811131C00C2F10E040901C0150901D01FF
:1018500060901E0170901F0121EE3AE74CE850E4C1
:10186000C301B201BDD218160CF0D7C02BE734E18A
:1018700046E950E4C301B20173D187FFCEC0109294
:10188000610010926000F801EE59FF4F8081809353
:10189000190190911801891711F090E043DA8091B5
:1018A0001901809318012091160130911701E091E0
:1018B0001B01809160009091610065E070E094D21E
:1018C0008E599F4FE80FF92FF11D808180931501EC
:1018D00090911401933309F0F2C04091120150919C
:1018E00013014217530708F4F5C0CDD5AB01BC0175
:1018F00080910D0190910E01A0910F01B091100106
:1019000088539D4CAF4FBF4F84179507A607B70765
:1019100008F029CF61E082E08CD763EA70E08AE8C2
:1019200091E091D840910D0150910E0160910F010D
:10193000709110012AE08AE891E094D88AE891E059
:10194000EDD41092110110921A010DCF0C9680392E
:10195000910509F0A0CDD0CDD73709F476CE4AD87D
:101960008A3039F08B3021F0813029F4A6DA7DCE2F
:10197000A4DAF4D97ACE40E253E068EC70E086E075
:1019800094D773CE0CDB77CE8FE391E0A2CE8BE0C1
:1019900091E0B7CE8AEB90E040D7D9CE255E3F4F9D
:1019A0008217930718F44817590778F12091050119
:1019B000309106018417950718F42817390738F174
:1019C00060910301709104018217930718F468175E
:1019D0007907C8F02091010130910201861797071D
:1019E00018F428173907A8F082179307A0F04817B2
:1019F000590708F021CF2091FF0030910001821794
:101A0000930708F019CFC2E017CFC0E015CFC1E0AF
:101A100013CFC3E011CFC4E00FCF20E030E040E7A8
:101A200050E4C301B201DCD1181694F42AE939E973
:101A300041E850E4C301B20193D087FF09C0B092DE
:101A40006100A0926000F801EE59FF4F85811FCF21
:101A50002DEC3CEC4CE450E4C301B201C1D11816AA
:101A600094F420E030E040E650E4C301B20178D0C5
:101A700087FF09C0D0926100C0926000F801EE5962
:101A8000FF4F828504CF26E636E646E150E4C301E7
:101A9000B201A6D118160CF006CF2AE939E949E2BD
:101AA00050E4C301B2015CD087FFFDCEF09261002B
:101AB000E0926000F801EE59FF4F8785E8CE923240
:101AC00009F013CF409112015091130124173507EB
:101AD00008F00BCF90911101891741F18091190104
:101AE00090926501109266011092670180936801DF
:101AF00097D313D8D0931A01C6D42B013C0140923E
:101B00000D0150920E0160920F017092100189EA4E
:101B100091E069D62AE0B301A2018AE891E0A2D758
:101B20008AE891E0FBD360E082E083D680911501E2
:101B300080931101DACE8AE890E090938B01809334
:101B40008A0120919601263050F435B381E090E06F
:101B500001C0880F2A95EAF78095832385BB0895F5
:101B600040D008F481E00895E89409C097FB3EF462
:101B700090958095709561957F4F8F4F9F4F9923DA
:101B8000A9F0F92F96E9BB279395F6958795779558
:101B90006795B795F111F8CFFAF4BB0F11F460FF18
:101BA0001BC06F5F7F4F8F4F9F4F16C0882311F070
:101BB00096E911C0772321F09EE8872F762F05C084
:101BC000662371F096E8862F70E060E02AF09A951F
:101BD000660F771F881FDAF7880F9695879597F914
:101BE0000895990F0008550FAA0BE0E8FEEF1616AE
:101BF0001706E807F907C0F012161306E407F50701
:101C000098F0621B730B840B950B39F40A2661F074
:101C1000232B242B252B21F408950A2609F4A14017
:101C2000A6958FEF811D811D08950AD080C071D0C7
:101C300028F076D018F0952309F062C067C0ABC0D9
:101C400087D0A8F39923D9F35523C9F3950F50E012
:101C5000551FAA27EE27FF27BB2700240894679566
:101C600020F4E20FF31FB41F0A1E220F331F441F7C
:101C7000AA1F6695A9F7779530F4F30FB41F0A1ED3
:101C8000121E08F46395330F441FAA1F221F769576
:101C900099F7879520F4B40F0A1E121E631F440F94
:101CA000AA1F221F331F8695A9F7862F712D602D3D
:101CB00011249F5750408AF0E1F088234AF0EE0F3C
:101CC000FF1FBB1F661F771F881F91505040A9F749
:101CD0009E3F510570F014C05EC05F3FECF3983E2C
:101CE000DCF3869577956795B795F795E7959F5FB0
:101CF000C1F7FE2B880F911D9695879597F908954A
:101D000097F99F6780E870E060E008959FEF80ECAE
:101D1000089500240A941616170618060906089551
:101D200000240A9412161306140605060895092EB7
:101D30000394000C11F4882352F0BB0F40F4BF2B26
:101D400011F460FF04C06F5F7F4F8F4F9F4F089566
:101D500057FD9058440F551F59F05F3F71F047955C
:101D6000880F97FB991F61F09F3F79F08795089541
:101D7000121613061406551FF2CF4695F1DF08C060
:101D8000161617061806991FF1CF8695710561057D
:101D900008940895E894BB2766277727CB0197F925
:101DA0000895E199FECF9FBB8EBBE09A99278DB332
:101DB0000895262FE199FECF1CBA9FBB8EBB2DBB89
:101DC0000FB6F894E29AE19A0FBE019608950024A6
:101DD00080FD060E660F11F08695D1F7802D0895CF
:101DE00000DF08F48FEF08950024552704C0080E83
:101DF000591F880F991F009729F076956795B8F3BA
:101E00007105B9F7802D952F089597FB072E16F4CD
:101E1000009406D077FD08D02DD007FC05D03EF405
:101E2000909581959F4F0895709561957F4F089586
:101E3000A1E21A2EAA1BBB1BFD010DC0AA1FBB1FCE
:101E4000EE1FFF1FA217B307E407F50720F0A21B40
:101E5000B30BE40BF50B661F771F881F991F1A94AD
:101E600069F760957095809590959B01AC01BD01D7
:101E7000CF010895AA1BBB1B51E107C0AA1FBB1FBE
:101E8000A617B70710F0A61BB70B881F991F5A9506
:101E9000A9F780959095BC01CD010895EE0FFF1F25
:101EA0000590F491E02D099410E0C9EED0E003C054
:101EB000FE01F4DF2196CA3ED107D1F7F894FFCF97
:101EC00063000102030405060708090A0B0C0D0E46
:101ED0000F1011121314000000002C01A0017A0150
:101EE000480165012B01000000008803A001840265
:101EF0009B025B02750253656E742000537461632C
:101F00006B3A0041647665727420656E643A200015
:00000001FF
