:10000000E2C006C1D4C804C103C187C801C135C854
:10001000FFC0FEC0FDC0FCC0FBC0FAC0F9C00000BC
:100020000000370001030000040000C201000000CE
:100030000E000E000C0000E100000500220022006E
:100040002000009600000F00360036003400127ABF
:1000500000001700430043004100807000001A00B8
:100060004A004A004800004B00002C00710071005B
:100070007000403800004A009C00990099008025DB
:1000800000007200EA00EA00E900C0120000E90086
:10009000DA01DA01D70160090000D701AC03AC0333
:1000A000B103B0040000B3036E076E0767072C01AD
:1000B0000000DC0EC11DC11DBE1D4E6F2050574DEE
:1000C00020666F756E640043757272656E7420747D
:1000D00068726F74746C6520005468726F74746C0D
:1000E00065204F4B200043757272656E7420686FF7
:1000F000726E2000486F726E204F4B200050574D9B
:100100002064657465637465643A00203C20746FF4
:10011000206F70657261746500203E20746F206FDF
:100120007065726174652E002C206D757374206289
:10013000652000486F726E206C696D6974200072D2
:10014000657665727365642E006E6F726D616C2EDC
:10015000005468726F74746C652069732000526576
:100160007665727365205468726F74746C65206C68
:10017000696D697420004E65757472616C2000466B
:100180006F7277617264205468726F74746C65204A
:100190006C696D697420000A454550524F4D2053DB
:1001A000657474696E67733A0000000000380000DF
:1001B00000000036000202020202020102040810DE
:1001C00020006109B00D11241FBECFE5D2E0DEBFD3
:1001D000CDBF21E0A4EAB0E001C01D92A53AB2076C
:1001E000E1F710E0A0E6B0E0EAEEFEE102C0059023
:1001F0000D92A43AB107D9F710E0C2EED0E003C0E7
:100200002197FE0160DEC13ED107D1F716D961CE3C
:10021000F7CEEFE5F1E083819481890F9927991F4B
:100220002581820F911D2681280F392F311D87814D
:10023000280F311D8085820F932F911D91958195F7
:10024000910991878287089508952FB7F894FC014A
:10025000458556853AE06095089420F478B3752377
:1002600078BB04C078B3742B78BB000050D74FD74D
:100270004ED74DD766953A9581F72FBF81E090E034
:100280000895DC011F96ED91FC9120A131A182A17E
:1002900093A12817390779F0A2A1B3A1AE0FBF1F10
:1002A0008C9122A133A12F5F3F4F2F71332733A3AE
:1002B00022A390E008958FEF9FEF0895DC011F9631
:1002C000ED91FC9120A131A182A193A128173907BA
:1002D00039F082A193A1E80FF91F808190E0089581
:1002E0008FEF9FEF0895DC011F96ED91FC9180A1A7
:1002F00091A122A133A1821B930B8F71992708959D
:10030000DC01ED91FC910190F081E02D09940F93B7
:100310001F93CF93DF93EC016DE0F2DF8C016AE075
:10032000CE01EEDF800F911FDF91CF911F910F91D2
:100330000895CF92DF92EF92FF920F931F93CF9386
:10034000DF936C01EB017B01E40EF51E10E000E091
:10035000CE15DF0561F06991D601ED91FC91019018
:10036000F081E02DC6010995080F191FF1CFC801D2
:10037000DF91CF911F910F91FF90EF90DF90CF9081
:1003800008953FB7F8948091E9009091EA00A09118
:10039000EB00B091EC0022B708B601FE05C02F3F7C
:1003A00019F00196A11DB11D3FBFBA2FA92F982F9B
:1003B0008827BC01CD01620F711D811D911D42E096
:1003C000660F771F881F991F4A95D1F70895CF921E
:1003D000DF92EF92FF92CF93DF936B017C01D1DF2D
:1003E000EB01C114D104E104F10441F412C081E035
:1003F000C81AD108E108F108C851DC4FC2DF6C1BF4
:100400007D0B683E734068F3C114D104E104F1042C
:1004100071F7DF91CF91FF90EF90DF90CF9008952B
:100420001F93CF93DF9314E0D0E0C0E017B887B1FB
:1004300087B9369A3699FECF94B185B18927982726
:100440008927C80FD91F62E070E080E090E0BFDF2D
:10045000115061F7BE0190E080E09BDB28E638EEAA
:100460004FE95BE3F7DB20E030E040E85EE3F2DBFE
:10047000DF91CF911F9108952FB7F8946091E50017
:100480007091E6008091E7009091E8002FBF0895F9
:10049000DC015196ED91FC915297908150968C9190
:1004A00080958923808308952091EF003091F0009A
:1004B0002817390781F49091ED008091EE0098178C
:1004C00051F0E091ED00F0E0EC55FF4F8081082EF7
:1004D000000C990B08958FEF9FEF08952091EF0086
:1004E0003091F0002817390739F48FB7F89410923B
:1004F000EE001092ED008FBF08952091EF00309133
:10050000F0002817390769F48091EE002091ED0082
:1005100090E0805C9F4F821B910960E470E08ADC70
:10052000089590E080E008952091EF003091F00070
:1005300028173907B9F49091ED008091EE009817D3
:1005400089F0E091ED00F0E0EC55FF4F80812091C3
:10055000ED0030E02F5F3F4F2F7333272093ED00E6
:1005600090E008958FEF9FEF089520E001972FEF1F
:100570008F3F9207D9F70895EF92FF920F931F9341
:10058000CF93DF93C091EF00D091F000209749F016
:10059000EE85FF859D858B8D81FF0AC08081892333
:1005A00051F4DF91CF911F910F91FF90EF9008953B
:1005B00080818923B1F78B899C89D7DF88E0E82E79
:1005C000F12C10E001E08D899E89CFDFEE85FF855B
:1005D00080819D85892331F1102B000F81E0E81A7D
:1005E000F10889F78F89988DC0DF8B8D81FD10957B
:1005F0008091EE002091ED0090E001968F73992795
:100600002817190699F0E091EE00F0E0EC55FF4F45
:1006100010838091EE0090E001968F73992780936C
:10062000EE00BFCF802F80951823D7CF8B8D8160B0
:100630008B8FB7CFCF92DF92EF92FF92F1DE6B01FB
:100640007C0126E636E646E350E4DFDB18167CF450
:100650002AE939E949E450E4C701B60196DA87FF8F
:1006600006C087E7FF90EF90DF90CF90089586E671
:10067000F9CF8091FD00843319F58091FB009091B2
:10068000FC002091F1003091F200281B390B3695C7
:10069000279536952795820F931F9093FA008093A4
:1006A000F900820F931F9093F8008093F700820F58
:1006B000931F9093F6008093F50010921A0108950D
:1006C0008332D9F78091FB009091FC002091F100DA
:1006D0003091F200AC01421B530B9A0136952795DD
:1006E00036952795821B930B9093FA008093F9001F
:1006F000821B930B9093F8008093F700821B930B5F
:10070000D8CFDF92EF92FF920F931F93CF93DF9397
:10071000EC01898D9A8D892B71F481E090E09B83A7
:100720008A8390E080E0DF91CF911F910F91FF903D
:10073000EF90DF900895162FDFB6F8948B8D81FD32
:1007400022C0CE01A5DE898D9A8D0FDF8B8D98E0BA
:10075000E92EF12C01E081FF24C0812F8023D1F00C
:10076000CE0196DE898D9A8D00DF000F81E0E81AB8
:10077000F10899F7CE018CDEDFBE898D9A8DF5DE0A
:1007800081E090E0D0CFE989FA8980819889892B2E
:100790008083D9CFE989FA8980819889892B8083E0
:1007A000E1CF812F8023A9F0E989FA898081988996
:1007B000892B8083898D9A8DD8DE000F81E0E81A1D
:1007C000F10879F7E989FA8980819889892B8083F2
:1007D000D3CFCE015DDEEECF0F931F93CF93DF9388
:1007E0008C01D0E0C0E0F801EC0FFD1F649166239E
:1007F00039F089E891E085DF892B11F02196F3CF5C
:10080000CE01DF91CF911F910F910895CF93DF9388
:10081000E3DFEC0189E891E07ADD8C0F9D1FDF9129
:10082000CF91089590E0FC01EC5DFF4F3491FC0105
:10083000E554FE4F2491FC01EB54FE4FE491EE236E
:10084000B9F0332329F03130A1F48AB58F778ABD0E
:10085000F0E0EE0FFF1FE755FE4FA591B4918FB763
:10086000611118C0F894EC9120952E232C938FBF22
:100870000895323019F48AB58F7DE9CF333021F4F1
:1008800080B78F7D80BFE4CF343011F78CB58F7D7A
:100890008CBDDECFF894EC912E2BE8CF8F929F92F7
:1008A000AF92BF92CF92DF92EF92FF92CF93DF93FE
:1008B000D82FC0E04B01B12CA12C6A01F12CE12C06
:1008C00060E082E0AFDFC501B40181DD61E082E07C
:1008D000A9DFC701B6017BDDCF5FDC13F1CFDF916C
:1008E000CF91FF90EF90DF90CF90BF90AF909F900F
:1008F0008F900895CF93DF9390E0FC01E554FE4F75
:1009000024918B549E4FFC0184918823C9F090E080
:10091000880F991FFC01E25EFF4FA591B491FC0185
:10092000E755FE4FC591D49161110DC09FB7F89462
:100930008C91209582238C938881282328839FBFC4
:10094000DF91CF910895623051F49FB7F8943C91B4
:10095000822F809583238C93E8812E2BEFCF8FB746
:10096000F894EC912E2B2C938FBFEACF0F931F930B
:100970008A019B0190E0FC01E554FE4F6491FC016B
:10098000EB54FE4FE491F0E0EE0FFF1FE155FE4FF8
:1009900085919491462F50D461157105810591057B
:1009A00029F06F5F7F4F8F4F9F4F9F701F910F9167
:1009B000089540EF55E560E070E080E0D7DF709388
:1009C00016016093150180910B018A50823050F41A
:1009D00040EF55E560E070E081E0C8DF70930A0108
:1009E000609309010895CF92DF92EF92FF9240E465
:1009F00052E46FE070E080E0B9DF6B0140E452E464
:100A00006FE070E081E0B2DF21E2C21A23E0D20A97
:100A100021E033EAC31636E0D30608F020E0AB014C
:100A200041525340433A564008F4265F822FFF90CC
:100A3000EF90DF90CF900895FB0101900020E9F73F
:100A40003197AF01461B570BDC01ED91FC91028001
:100A5000F381E02D09948F929F92AF92BF92CF9233
:100A6000DF92EF92FF920F931F93CF93DF93CDB757
:100A7000DEB7A1970FB6F894DEBF0FBECDBF6C01F5
:100A8000142FE52FCB01022F19A2223008F40AE01F
:100A90007E0121E2E20EF11C802E912CB12CA12CC2
:100AA000612F7E2FA5019401D8D9802F622FA4D960
:100AB000181B1A300CF5105DF70112937F01122FED
:100AC000E32FCA01232B242B252B51F7B701C60195
:100AD000B3DFA1960FB6F894DEBF0FBECDBFDF9196
:100AE000CF911F910F91FF90EF90DF90CF90BF902B
:100AF000AF909F908F900895195CDECF482F50E003
:100B000070E060E020E183E491E0A5CFAF92BF9276
:100B1000CF92DF92EF92FF920F931F93CF93DF93C9
:100B200080915F0190916001DC01ED91FC91019059
:100B3000F081E02D60916101099580915F019091B4
:100B40006001DC01ED91FC910190F081E02D60915C
:100B50006201099580915F0190916001DC01ED9146
:100B6000FC910190F081E02D6091630109958091E5
:100B70005F0190916001DC01ED91FC910190F081A9
:100B8000E02D60916401099580915F019091600171
:100B9000DC01ED91FC910190F081E02D6091650107
:100BA000099580915F0190916001DC01ED91FC91CC
:100BB0000190F081E02D60916601099580915F01BF
:100BC00090916001DC01ED91FC910190F081E02DAC
:100BD00060916701099580915F0190916001DC014E
:100BE000ED91FC910190F081E02D609168010995F3
:100BF00080915F0190916001DC01ED91FC91019089
:100C0000F081E02D60916901099580915F019091DB
:100C10006001DC01ED91FC910190F081E02D60918B
:100C20006A01099580917501882309F469C066E914
:100C300070E083E491E000DFA0906101B090620178
:100C4000C0906301D0906401E0906501F09066016E
:100C50000091670110916801D0916901C0916A010A
:100C60006CE970E083E491E0E7DE83E491E04FDB40
:100C70008A2D44DF60E283E491E042DB8B2D3EDF8E
:100C800060E283E491E03CDB8C2D38DF60E283E4BA
:100C900091E036DB8D2D32DF60E283E491E030DBE2
:100CA0008E2D2CDF60E283E491E02ADB8F2D26DF9E
:100CB00060E283E491E024DB802F20DF60E283E4C4
:100CC00091E01EDB812F1ADF60E283E491E018DB04
:100CD0008D2F14DF60E283E491E012DB8C2F0EDFB6
:100CE00083E491E014DB83E491E0DF91CF911F91E5
:100CF0000F91FF90EF90DF90CF90BF90AF9007CB18
:100D0000DF91CF911F910F91FF90EF90DF90CF90E7
:100D1000BF90AF900895EFE5F1E098E095831682DB
:100D20001782808776DAF2CECF93DF93AC0170E042
:100D300060E02AE089E891E08EDEEC0189E891E04C
:100D4000E6DA8C0F9D1FDF91CF91089547C86F920F
:100D50007F928F929F92AF92BF92CF92DF92EF924B
:100D6000FF920F931F93CF93DF9364DCC82F68EC3F
:100D700070E080E090E02BDB5DDCC63611F4863657
:100D8000A1F340EF55E560E070E081E0EFDD3B016D
:100D90004CE251E06CE271E083E080DD4BDCC82F77
:100DA00068EC70E080E090E012DB44DCC73711F4BF
:100DB0008737A1F33FDCC82F68EC70E080E090E05B
:100DC00006DB38DCC63611F48636A1F34CE251E07E
:100DD0006CE271E084E062DD40EF55E560E070E0D8
:100DE00081E0C4DD4B018B0125DCC82F68EC70E08D
:100DF00080E090E0ECDA1EDCC73711F48737A1F30E
:100E000019DCC82F68EC70E080E090E0E0DA12DCDA
:100E1000C63611F48636A1F340EF55E560E070E088
:100E200081E0A4DD6B01EB014CE251E06CE271E08A
:100E300085E034DDC016D10680F58401055E1F4FC4
:100E40006B9764E389E090E081DF602F83E090E0BE
:100E50007DDF612F84E090E079DF662D85E090E012
:100E600075DF672D86E090E071DF6C2F87E090E002
:100E70006DDF6D2F88E090E069DF81E0DF91CF9139
:100E80001F910F91FF90EF90DF90CF90BF90AF90A8
:100E90009F908F907F906F9008950C151D05A8F678
:100EA00084010B5111096B9663E2CCCFCF92DF9294
:100EB000EF92FF920F931F93CF93DF93BBDBC82F6B
:100EC00068EC70E080E090E082DAB4DBC63611F4C2
:100ED0008636A1F340EF55E560E070E080E046DD46
:100EE000EB014CE251E06CE271E081E0D7DCA2DB87
:100EF000182F68EC70E080E090E069DA9BDB173730
:100F000011F48737A1F396DB182F68EC70E080E0CE
:100F100090E05DDA8FDB163611F48636A1F340EFF0
:100F200055E560E070E080E021DD6B014CE251E0CE
:100F30006CE271E082E0B2DCCC15DD05C8F48BE137
:100F4000C81AD1086C2D90E080E000DF6D2D81E0A3
:100F500090E0FCDE63E382E090E0F8DE81E0DF9188
:100F6000CF911F910F91FF90EF90DF90CF90089558
:100F7000CC16DD0698F78BE1C80ED11C6C2D90E0E5
:100F800080E0E4DE6D2D81E090E0E0DE62E2E3CF20
:100F900060ED90E080E0DADE67E081E090E0D6DEB0
:100FA00063E382E090E0D2DE60ED83E090E0CEDEAD
:100FB00067E084E090E0CADE6CED85E090E0C6DE9C
:100FC00065E086E090E0C2DE68EE87E090E0BEDE9D
:100FD00063E088E090E0BADE64E389E090E0B6DEAA
:100FE00064E580E091E0B2DE4CE251E06CEB72E04F
:100FF00084E054DC0895EAC6CF9390E080E0FBDF04
:10100000C82F81E090E0F7DF982F8C2F909312018A
:101010008093110182E090E0EEDF8093130183E082
:1010200090E0E9DFC82F84E090E0E5DF982F8C2F77
:101030009093F2008093F10085E090E0DCDFC82F10
:1010400086E090E0D8DF982F8C2F9093FC0080935F
:10105000FB0087E090E0CFDFC82F88E090E0CBDF97
:10106000982F8C2F9093F4008093F30089E090E008
:10107000C2DF8093FD00CF9108951F920F920FB6AB
:101080000F9211242F933F934F935F937F938F93EE
:101090009F93AF93BF93EF93FF9340914F0120E055
:1010A00038E035D034D033D032D031D0889476B3D4
:1010B000742309F0089427953A9509F0F3CF27D0C7
:1010C00026D0E0915201F091530180A191A10196A7
:1010D0008F71992742A153A18417950739F0A0A1D8
:1010E000B1A1AE0FBF1F2C9391A380A3449AFF918F
:1010F000EF91BF91AF919F918F917F915F914F91B0
:101100003F912F910F900FBE0F901F9018958091D7
:101110005401982F9A95F1F708951F920F920FB6E8
:101120000F9211242F933F938F939F93AF93BF936D
:101130008091E5009091E600A091E700B091E80071
:101140003091E40023E0230F2D3768F126E8230FC8
:101150000296A11DB11D2093E4008093E5009093B9
:10116000E600A093E700B093E8008091E900909139
:10117000EA00A091EB00B091EC000196A11DB11D19
:101180008093E9009093EA00A093EB00B093EC0009
:10119000BF91AF919F918F913F912F910F900FBE73
:1011A0000F901F9018950196A11DB11DD4CF1F92CD
:1011B0000F920FB60F9211242F933F934F935F938B
:1011C0006F937F938F939F93AF93BF93CF93EF933F
:1011D000FF9386B395B3892380935E0180915D016F
:1011E00090915E01892780935C0180915E018093DC
:1011F0005D01C0E080915B01C81760F4EC2FF0E066
:10120000EE0FFF1FEB5AFE4F0190F081E02D099584
:10121000CF5FF0CFFF91EF91CF91BF91AF919F91B1
:101220008F917F916F915F914F913F912F910F908F
:101230000FBE0F901F901895CF92DF92EF92FF9202
:101240000F931F93E82FF92F08C000C000C00000C3
:10125000015011092109310949F190819623941710
:10126000A1F308C000C000C000000150110921090D
:101270003109E1F0908196239413F4CFC12CD12C45
:10128000E12CF12C0AC08FEFC81AD80AE80AF80A34
:101290000C151D052E053F0549F080818623841716
:1012A00091F36C2D7D2D8E2D9F2D04C060E070E09C
:1012B00080E090E01F910F91FF90EF90DF90CF9032
:1012C0000895109246011092450188EE93E0A0E047
:1012D000B0E08093470190934801A0934901B093F7
:1012E0004A012AE730E030934401209343012FE183
:1012F00031E0309353012093520122E020934F01BB
:1013000021E0209350012EEF2093510110925401BF
:1013100010928C0110928B0180938D0190938E011D
:10132000A0938F01B09390018AE890E090938A0196
:101330008093890110929D0110929C0110929F014F
:1013400010929E011092A1011092A0011092A3018F
:101350001092A2018091A4018E7F8D7F8093A401C1
:1013600060E084E0C7DA8091A40181FD03C061E000
:1013700084E058DA84E08093950180E180939601BF
:1013800086E390E0909398018093970188E08093A2
:10139000990161E083E0AEDA61E083E043DA88E35B
:1013A00090E090939B0180939A01809155019091D8
:1013B00056018C5B924011F1809157019091580138
:1013C0008C5B9240D9F08091590190915A018C5BCD
:1013D0009240A1F080915B01833080F4E0915B0149
:1013E000F0E0EE0FFF1FEB5AFE4F8CEB92E0918383
:1013F000808380915B018F5F80935B011092760107
:1014000010927701109278011092790110927A016E
:1014100010927B0110927C0110927D0110927E014E
:1014200010927F011092800110928101109282012E
:101430001092880110928701089583E08ABD83BFCE
:10144000789489B7826089BF80E48CBD8FEF8DBDB1
:1014500087EC80BF87E886B961E082E04BDA60E024
:1014600082E0E0D91092A3011092A2011092A10192
:101470001092A00110929F0110929E0110929D0166
:1014800010929C0190E080E0FC01E65DFF4F4591E9
:10149000559165917491403855426105710509F087
:1014A000E7C1FC01E25DFF4F2591349130939D012E
:1014B00020939C01FC01E05DFF4F25913491309316
:1014C0009F0120939E01FC01EE5CFF4F259134911A
:1014D0003093A1012093A001FC01EC5CFF4F8591AA
:1014E00094919093A3018093A2018091A001909187
:1014F000A101892BA9F090919501963060F48BB7EA
:1015000080628BBF85B321E030E001C0220F9A9545
:10151000EAF7822B85BB8091A2019091A30125D887
:101520008091EF009091F0008958914091F0809166
:10153000A4018E7F8093A4018FB7F8941092EE00DF
:101540001092ED0029E831E03093F0002093EF0095
:101550008FBF84E690E0A0E0B0E080938301909399
:101560008401A0938501B093860110927601809347
:101570007F0190938001A0938101B09382017CD779
:1015800060937B0170937C0180937D0190937E0139
:1015900089E891E09093600180935F01109275015A
:1015A0002EE7209361019FEF90936201D6E0D093E4
:1015B00063018FEE80936A0120936B0190936C011D
:1015C000D0936D018093740168EE73E080E090E049
:1015D000FED6D093640110926501109266018CE1F1
:1015E0008093670116D692DA62E080E083D962E0E8
:1015F00081E080D915D76B017C01C0921B01D0928C
:101600001C01E0921D01F0921E0126E636E646E33B
:1016100050E4FBD3181614F52AE939E949E450E4FB
:10162000C701B601B2D287FF19C004D825D78B01F4
:101630004CE251E06CE271E086E030D9FBD7D82F64
:1016400068EC70E080E090E0C2D6F4D715D7601B5C
:10165000710B6131774208F411C19ADC80E091E0AE
:10166000CADC843509F020C1C7DC03D861E082E020
:10167000D9D8B9D980930B019CD987E991E0C6D814
:101680008FE791E0A9D88091F1009091F2004CDBB6
:1016900086E791E0A1D88091FB009091FC0044DBAB
:1016A0008EE591E099D88091F3009091F4003CDBB5
:1016B00081E591E091D88091FD00843309F0F6C076
:1016C00089E491E0A3D883E391E086D840911101A9
:1016D0005091120170E060E02AE089E891E0BBD906
:1016E00088E291E079D880911301833309F0E1C059
:1016F00089E191E08BD88DEF90E06ED880910B015D
:10170000813011F08B3059F484EF90E07FD886EE71
:1017100090E062D8809115019091160105DB8091CF
:101720000B018A50823008F0C7C089ED90E06ED876
:1017300087EC90E051D88091090190910A01F4DA88
:10174000D1E043E0E42EF12C52E0C52ED12CAA24A6
:10175000A394B12C73E1972E63D660931B01709311
:101760001C0180931D0190931E0123D980910B01D0
:10177000823008F0A5C0C0E0C0931A018091190121
:10178000811131C00C2F10E040901B0150901C01C2
:1017900060901D0170901E0121EE3AE74CE850E484
:1017A000C301B20132D318160CF05AC12BE734E151
:1017B00046E950E4C301B201E8D187FF51C110925C
:1017C000610010926000F801EE59FF4F8081809314
:1017D000180190911701891711F090E09CDA80911F
:1017E0001801809317012091150130911601E091A5
:1017F0001A01809160009091610065E070E009D36A
:101800008E599F4FE80FF92FF11D808180931401AD
:10181000A901455F51404F3C574068F49091130136
:10182000933309F06FC14091110150911201421799
:10183000530708F472C120D6AB01BC0180910C01A2
:1018400090910D01A0910E01B0910F0188539D4C14
:10185000AF4FBF4F84179507A607B70708F07CCF97
:1018600061E082E0DFD7109210011092190174CF6D
:101870000C968039910509F007CE37CED73709F499
:10188000DDCEB1D88A3039F08B3021F0813029F4A7
:101890000DDBE4CE0BDB5BDAE1CE40E253E068EC3B
:1018A00070E086E0FBD7DACE73DBDECE8FE391E02B
:1018B00009CF8BE091E01ECF8AEB90E0A7D740CF15
:1018C0004091090150910A0120910601E22FF0E0B8
:1018D000EE0FFF1FE250FF4F608171818091070181
:1018E00090910801840F951F51834083861B970BAD
:1018F00090930801809307012F5F243008F05EC0A9
:101900002093060196958795969587952091FB00E3
:101910003091FC004091FD00443309F052C0A90110
:101920004B5151094817590738F4B901655E7F4F8B
:101930008617970708F41FCFE091F900F091FA009D
:101940002C5C3F4F2817390738F49F012951310982
:101950008217930708F47EC06091F7007091F80039
:101960007996E817F90730F49B012951310982175C
:10197000930710F12091F5003091F600675E7F4FDC
:101980006817790738F4B901695171098617970703
:1019900008F462C0275E3F4F2817390708F45EC07D
:1019A0008417950708F0E8CE2091F3003091F400F9
:1019B0002817390708F0E0CEC2E0DECE109206010B
:1019C000A1CFA901455E5F4F8417950730F44653B8
:1019D00051094817590708F4CECE245331096091B4
:1019E000F9007091FA008217930730F4AB01475E5B
:1019F0005F4F4817590770F14091F7005091F80078
:101A0000695171098617970730F4BA01675E7F4FF5
:101A10006817790788F26091F5007091F6004951D6
:101A200051098417950730F4AB01475E5F4F4817A3
:101A3000590790F08617970788F02817390708F09C
:101A40009BCE2091F3003091F4008217930708F0A9
:101A500093CEB2CFC1E090CEC3E08ECEC4E08CCEA8
:101A600020E030E040E750E4C301B201CED11816C7
:101A700094F42AE939E941E850E4C301B20185D080
:101A800087FF09C0B0926100A0926000F801EE5992
:101A9000FF4F85819CCE2DEC3CEC4CE450E4C3011F
:101AA000B201B3D1181694F420E030E040E650E4DF
:101AB000C301B2016AD087FF09C0D0926100C09211
:101AC0006000F801EE59FF4F828581CE26E636E6AA
:101AD00046E150E4C301B20198D118160CF083CE50
:101AE0002AE939E949E250E4C301B2014ED087FF47
:101AF0007ACEF0926100E0926000F801EE59FF4F5B
:101B0000878565CE923209F096CE409111015091B1
:101B100012012417350708F08ECE90911001891715
:101B2000D1F0809118019092640110926501109299
:101B30006601809367016DD3E9D7D09319019CD4D6
:101B400060930C0170930D0180930E0190930F012F
:101B500060E082E067D680911401809310016BCE23
:101B60008AE890E090938A01809389012091950101
:101B7000263050F435B381E090E001C0880F2A95FB
:101B8000EAF78095832385BB089540D008F481E06F
:101B90000895E89409C097FB3EF490958095709560
:101BA00061957F4F8F4F9F4F9923A9F0F92F96E9A9
:101BB000BB279395F695879577956795B795F1111E
:101BC000F8CFFAF4BB0F11F460FF1BC06F5F7F4FBB
:101BD0008F4F9F4F16C0882311F096E911C07723CD
:101BE00021F09EE8872F762F05C0662371F096E8D6
:101BF000862F70E060E02AF09A95660F771F881FA5
:101C0000DAF7880F9695879597F90895990F000848
:101C1000550FAA0BE0E8FEEF16161706E807F907BE
:101C2000C0F012161306E407F50798F0621B730B59
:101C3000840B950B39F40A2661F0232B242B252BDA
:101C400021F408950A2609F4A140A6958FEF811D7D
:101C5000811D08950AD080C071D028F076D018F088
:101C6000952309F062C067C0ABC087D0A8F3992361
:101C7000D9F35523C9F3950F50E0551FAA27EE2736
:101C8000FF27BB2700240894679520F4E20FF31F79
:101C9000B41F0A1E220F331F441FAA1F6695A9F7FF
:101CA000779530F4F30FB41F0A1E121E08F46395E3
:101CB000330F441FAA1F221F769599F7879520F4AA
:101CC000B40F0A1E121E631F440FAA1F221F331FC8
:101CD0008695A9F7862F712D602D11249F575040AE
:101CE0008AF0E1F088234AF0EE0FFF1FBB1F661F4A
:101CF000771F881F91505040A9F79E3F510570F003
:101D000014C05EC05F3FECF3983EDCF38695779598
:101D10006795B795F795E7959F5FC1F7FE2B880FFD
:101D2000911D9695879597F9089597F99F6780E893
:101D300070E060E008959FEF80EC089500240A941D
:101D40001616170618060906089500240A94121696
:101D50001306140605060895092E0394000C11F4C9
:101D6000882352F0BB0F40F4BF2B11F460FF04C076
:101D70006F5F7F4F8F4F9F4F089557FD9058440FCF
:101D8000551F59F05F3F71F04795880F97FB991FDA
:101D900061F09F3F79F08795089512161306140697
:101DA000551FF2CF4695F1DF08C016161706180624
:101DB000991FF1CF86957105610508940895E894FF
:101DC000BB2766277727CB0197F90895E199FECFC6
:101DD0009FBB8EBBE09A99278DB30895262FE1997A
:101DE000FECF1CBA9FBB8EBB2DBB0FB6F894E29AF8
:101DF000E19A0FBE01960895002480FD060E660F3D
:101E000011F08695D1F7802D089500DF08F48FEF4B
:101E100008950024552704C0080E591F880F991FE4
:101E2000009729F076956795B8F37105B9F7802D7D
:101E3000952F089597FB072E16F4009406D077FD92
:101E400008D02DD007FC05D03EF4909581959F4F8A
:101E50000895709561957F4F0895A1E21A2EAA1BEF
:101E6000BB1BFD010DC0AA1FBB1FEE1FFF1FA2174A
:101E7000B307E407F50720F0A21BB30BE40BF50B47
:101E8000661F771F881F991F1A9469F760957095D0
:101E9000809590959B01AC01BD01CF010895AA1BCF
:101EA000BB1B51E107C0AA1FBB1FA617B70710F045
:101EB000A61BB70B881F991F5A95A9F78095909577
:101EC000BC01CD010895EE0FFF1F0590F491E02DA8
:101ED000099410E0C2EED0E003C0FE01F4DF2196C9
:0A1EE000C33ED107D1F7F894FFCFFD
:101EEA0063000102030405060708090A0B0C0D0E1C
:101EFA000F1011121314000000002501990173013B
:101F0A0041015E01240100000000810399017D0264
:101F1A00940254026E0253656E7420005374616316
:041F2A006B3A00000E
:00000001FF
